{"abi":[{"type":"function","name":"CALL_ASSUMPTIONS_ENCODING_LENGTH","inputs":[],"outputs":[{"name":"","type":"uint256","internalType":"uint256"}],"stateMutability":"view"},{"type":"function","name":"ETH_WORD_SIZE","inputs":[],"outputs":[{"name":"","type":"uint256","internalType":"uint256"}],"stateMutability":"view"},{"type":"function","name":"FUNCTION_SELECTOR_ENCODING_LENGTH","inputs":[],"outputs":[{"name":"","type":"uint256","internalType":"uint256"}],"stateMutability":"view"},{"type":"function","name":"PROVER_CONTRACT_ADDRESS_ENCODING_LENGTH","inputs":[],"outputs":[{"name":"","type":"uint256","internalType":"uint256"}],"stateMutability":"view"},{"type":"function","name":"SETTLE_BLOCK_HASH_ENCODING_LENGTH","inputs":[],"outputs":[{"name":"","type":"uint256","internalType":"uint256"}],"stateMutability":"view"},{"type":"function","name":"SETTLE_BLOCK_NUMBER_ENCODING_LENGTH","inputs":[],"outputs":[{"name":"","type":"uint256","internalType":"uint256"}],"stateMutability":"view"},{"type":"function","name":"SETTLE_CHAIN_ID_ENCODING_LENGTH","inputs":[],"outputs":[{"name":"","type":"uint256","internalType":"uint256"}],"stateMutability":"view"}],"bytecode":{"object":"0x61027461004d600b8282823980515f1a6073146041577f4e487b71000000000000000000000000000000000000000000000000000000005f525f60045260245ffd5b305f52607381538281f3fe7300000000000000000000000000000000000000003014608060405260043610610086575f3560e01c806354ff28501161006457806354ff2850146100e45780637475d58c14610102578063a4e0c57514610120578063d8c17a071461013e57610086565b806304ac6e5d1461008a5780631edbf9a9146100a857806332d628cd146100c6575b5f5ffd5b61009261015c565b60405161009f91906101c5565b60405180910390f35b6100b0610161565b6040516100bd91906101c5565b60405180910390f35b6100ce610166565b6040516100db91906101c5565b60405180910390f35b6100ec61016b565b6040516100f991906101c5565b60405180910390f35b61010a61019e565b60405161011791906101c5565b60405180910390f35b6101286101a3565b60405161013591906101c5565b60405180910390f35b6101466101a8565b60405161015391906101c5565b60405180910390f35b602081565b602081565b602081565b602080602080602061017d919061020b565b610187919061020b565b610191919061020b565b61019b919061020b565b81565b602081565b602081565b602081565b5f819050919050565b6101bf816101ad565b82525050565b5f6020820190506101d85f8301846101b6565b92915050565b7f4e487b71000000000000000000000000000000000000000000000000000000005f52601160045260245ffd5b5f610215826101ad565b9150610220836101ad565b9250828201905080821115610238576102376101de565b5b9291505056fea2646970667358221220f1ff593920c99e186bc9ccde1c3ff0e5db7847c9bb4c16e624b77fb2259efaea64736f6c634300081e0033","linkReferences":{}},"methodIdentifiers":{"CALL_ASSUMPTIONS_ENCODING_LENGTH()":"54ff2850","ETH_WORD_SIZE()":"d8c17a07","FUNCTION_SELECTOR_ENCODING_LENGTH()":"a4e0c575","PROVER_CONTRACT_ADDRESS_ENCODING_LENGTH()":"32d628cd","SETTLE_BLOCK_HASH_ENCODING_LENGTH()":"7475d58c","SETTLE_BLOCK_NUMBER_ENCODING_LENGTH()":"1edbf9a9","SETTLE_CHAIN_ID_ENCODING_LENGTH()":"04ac6e5d"},"id":52}