{"abi":[{"type":"function","name":"RISC0_CALL_GUEST_ID","inputs":[],"outputs":[{"name":"","type":"bytes32","internalType":"bytes32"}],"stateMutability":"view"}],"bytecode":{"object":"0x60d961004c600b8282823980515f1a6073146040577f4e487b71000000000000000000000000000000000000000000000000000000005f525f60045260245ffd5b305f52607381538281f3fe73000000000000000000000000000000000000000030146080604052600436106032575f3560e01c8063d7b00be9146036575b5f5ffd5b603c6050565b60405160479190608c565b60405180910390f35b7fdcb00648ecc90d8bfe92aa8d51061beb0bcb110d274fc4a517e526574233d36b5f1b81565b5f819050919050565b6086816076565b82525050565b5f602082019050609d5f830184607f565b9291505056fea2646970667358221220395085eb187ad131195b0ad54c33a72f3ccbae99da950dde5be23cdfb05bdf8f64736f6c634300081e0033","linkReferences":{}},"methodIdentifiers":{"RISC0_CALL_GUEST_ID()":"d7b00be9"},"id":53}