{"abi":[{"type":"function","name":"ETH_WORD_SIZE","inputs":[],"outputs":[{"name":"","type":"uint256","internalType":"uint256"}],"stateMutability":"view"},{"type":"function","name":"FAKE_SEAL_LENGTH","inputs":[],"outputs":[{"name":"","type":"uint256","internalType":"uint256"}],"stateMutability":"view"},{"type":"function","name":"GROTH16_SEAL_LENGTH","inputs":[],"outputs":[{"name":"","type":"uint256","internalType":"uint256"}],"stateMutability":"view"},{"type":"function","name":"PROOF_MODE_ENCODING_LENGTH","inputs":[],"outputs":[{"name":"","type":"uint256","internalType":"uint256"}],"stateMutability":"view"},{"type":"function","name":"SEAL_BYTES_ENCODING_LENGTH","inputs":[],"outputs":[{"name":"","type":"uint256","internalType":"uint256"}],"stateMutability":"view"},{"type":"function","name":"SEAL_ENCODING_LENGTH","inputs":[],"outputs":[{"name":"","type":"uint256","internalType":"uint256"}],"stateMutability":"view"},{"type":"function","name":"VERIFIER_SELECTOR_ENCODING_LENGTH","inputs":[],"outputs":[{"name":"","type":"uint256","internalType":"uint256"}],"stateMutability":"view"},{"type":"function","name":"VERIFIER_SELECTOR_LENGTH","inputs":[],"outputs":[{"name":"","type":"uint256","internalType":"uint256"}],"stateMutability":"view"}],"bytecode":{"object":"0x6102a761004d600b8282823980515f1a6073146041577f4e487b71000000000000000000000000000000000000000000000000000000005f525f60045260245ffd5b305f52607381538281f3fe7300000000000000000000000000000000000000003014608060405260043610610091575f3560e01c8063cb7138ed11610064578063cb7138ed1461010d578063d8c17a071461012b578063db3e68bf14610149578063e336381d1461016757610091565b806343e656f0146100955780636b1a676e146100b3578063702c2615146100d1578063be7acbcf146100ef575b5f5ffd5b61009d610185565b6040516100aa91906101f8565b60405180910390f35b6100bb610197565b6040516100c891906101f8565b60405180910390f35b6100d96101b5565b6040516100e691906101f8565b60405180910390f35b6100f76101ba565b60405161010491906101f8565b60405180910390f35b6101156101cb565b60405161012291906101f8565b60405180910390f35b6101336101d0565b60405161014091906101f8565b60405180910390f35b6101516101d5565b60405161015e91906101f8565b60405180910390f35b61016f6101da565b60405161017c91906101f8565b60405180910390f35b6101006004610194919061023e565b81565b602061010060206101a8919061023e565b6101b2919061023e565b81565b602081565b602060046101c8919061023e565b81565b602081565b602081565b600481565b61010081565b5f819050919050565b6101f2816101e0565b82525050565b5f60208201905061020b5f8301846101e9565b92915050565b7f4e487b71000000000000000000000000000000000000000000000000000000005f52601160045260245ffd5b5f610248826101e0565b9150610253836101e0565b925082820190508082111561026b5761026a610211565b5b9291505056fea2646970667358221220eefbe8450a14636178e8e99169c28c108ccd59bea748bdd2b87b849e6185b7a764736f6c634300081e0033","linkReferences":{}},"methodIdentifiers":{"ETH_WORD_SIZE()":"d8c17a07","FAKE_SEAL_LENGTH()":"be7acbcf","GROTH16_SEAL_LENGTH()":"43e656f0","PROOF_MODE_ENCODING_LENGTH()":"cb7138ed","SEAL_BYTES_ENCODING_LENGTH()":"e336381d","SEAL_ENCODING_LENGTH()":"6b1a676e","VERIFIER_SELECTOR_ENCODING_LENGTH()":"702c2615","VERIFIER_SELECTOR_LENGTH()":"db3e68bf"},"id":59}