{"abi":[{"type":"function","name":"IS_VLAYER_TEST","inputs":[],"outputs":[{"name":"","type":"address","internalType":"address"}],"stateMutability":"view"},{"type":"function","name":"JSON_GET_BOOL","inputs":[],"outputs":[{"name":"","type":"address","internalType":"address"}],"stateMutability":"view"},{"type":"function","name":"JSON_GET_FLOAT_AS_INT","inputs":[],"outputs":[{"name":"","type":"address","internalType":"address"}],"stateMutability":"view"},{"type":"function","name":"JSON_GET_INT","inputs":[],"outputs":[{"name":"","type":"address","internalType":"address"}],"stateMutability":"view"},{"type":"function","name":"JSON_GET_STRING","inputs":[],"outputs":[{"name":"","type":"address","internalType":"address"}],"stateMutability":"view"},{"type":"function","name":"PRECOMPILES","inputs":[],"outputs":[{"name":"","type":"address","internalType":"address"}],"stateMutability":"view"},{"type":"function","name":"REGEX_CAPTURE","inputs":[],"outputs":[{"name":"","type":"address","internalType":"address"}],"stateMutability":"view"},{"type":"function","name":"REGEX_MATCH","inputs":[],"outputs":[{"name":"","type":"address","internalType":"address"}],"stateMutability":"view"},{"type":"function","name":"URL_PATTERN_TEST","inputs":[],"outputs":[{"name":"","type":"address","internalType":"address"}],"stateMutability":"view"},{"type":"function","name":"VERIFY_AND_PARSE","inputs":[],"outputs":[{"name":"","type":"address","internalType":"address"}],"stateMutability":"view"},{"type":"function","name":"VERIFY_EMAIL","inputs":[],"outputs":[{"name":"","type":"address","internalType":"address"}],"stateMutability":"view"}],"bytecode":{"object":"0x61048161004d600b8282823980515f1a6073146041577f4e487b71000000000000000000000000000000000000000000000000000000005f525f60045260245ffd5b305f52607381538281f3fe73000000000000000000000000000000000000000030146080604052600436106100b2575f3560e01c806397a28b491161007a57806397a28b491461014c578063a1c552651461016a578063a25e63f714610188578063e35576da146101a6578063e9df163c146101c4578063f98c2b38146101e2576100b2565b80631662d562146100b657806339ab5752146100d45780635b561be8146100f2578063769dd05c146101105780637d7d70de1461012e575b5f5ffd5b6100be610200565b6040516100cb91906103be565b60405180910390f35b6100dc610224565b6040516100e991906103be565b60405180910390f35b6100fa610248565b60405161010791906103be565b60405180910390f35b610118610260565b60405161012591906103be565b60405180910390f35b610136610284565b60405161014391906103be565b60405180910390f35b6101546102a8565b60405161016191906103be565b60405180910390f35b6101726102cc565b60405161017f91906103be565b60405180910390f35b6101906102f0565b60405161019d91906103be565b60405180910390f35b6101ae610314565b6040516101bb91906103be565b60405180910390f35b6101cc610338565b6040516101d991906103be565b60405180910390f35b6101ea61035c565b6040516101f791906103be565b60405180910390f35b600273f4e4fdca9d5d55e64525e314391996a15f7ec6006102219190610404565b81565b600573f4e4fdca9d5d55e64525e314391996a15f7ec6006102459190610404565b81565b73f4e4fdca9d5d55e64525e314391996a15f7ec60081565b600173f4e4fdca9d5d55e64525e314391996a15f7ec6006102819190610404565b81565b601073f4e4fdca9d5d55e64525e314391996a15f7ec6006102a59190610404565b81565b600473f4e4fdca9d5d55e64525e314391996a15f7ec6006102c99190610404565b81565b601173f4e4fdca9d5d55e64525e314391996a15f7ec6006102ed9190610404565b81565b602073f4e4fdca9d5d55e64525e314391996a15f7ec6006103119190610404565b81565b601e73f4e4fdca9d5d55e64525e314391996a15f7ec6006103359190610404565b81565b600373f4e4fdca9d5d55e64525e314391996a15f7ec6006103599190610404565b81565b5f73f4e4fdca9d5d55e64525e314391996a15f7ec60061037c9190610404565b81565b5f73ffffffffffffffffffffffffffffffffffffffff82169050919050565b5f6103a88261037f565b9050919050565b6103b88161039e565b82525050565b5f6020820190506103d15f8301846103af565b92915050565b7f4e487b71000000000000000000000000000000000000000000000000000000005f52601160045260245ffd5b5f61040e8261037f565b91506104198361037f565b9250828201905073ffffffffffffffffffffffffffffffffffffffff811115610445576104446103d7565b5b9291505056fea264697066735822122018e80ab70f82df3299c5fa2950d296100b5ce297ef4d08a360fd08a83140a2a364736f6c634300081e0033","linkReferences":{}},"methodIdentifiers":{"IS_VLAYER_TEST()":"e35576da","JSON_GET_BOOL()":"97a28b49","JSON_GET_FLOAT_AS_INT()":"39ab5752","JSON_GET_INT()":"e9df163c","JSON_GET_STRING()":"1662d562","PRECOMPILES()":"5b561be8","REGEX_CAPTURE()":"a1c55265","REGEX_MATCH()":"7d7d70de","URL_PATTERN_TEST()":"a25e63f7","VERIFY_AND_PARSE()":"f98c2b38","VERIFY_EMAIL()":"769dd05c"},"id":55}