{"abi":[{"type":"constructor","inputs":[],"stateMutability":"nonpayable"},{"type":"function","name":"approve","inputs":[{"name":"to","type":"address","internalType":"address"},{"name":"tokenId","type":"uint256","internalType":"uint256"}],"outputs":[],"stateMutability":"nonpayable"},{"type":"function","name":"balanceOf","inputs":[{"name":"owner","type":"address","internalType":"address"}],"outputs":[{"name":"","type":"uint256","internalType":"uint256"}],"stateMutability":"view"},{"type":"function","name":"currentTokenId","inputs":[],"outputs":[{"name":"","type":"uint256","internalType":"uint256"}],"stateMutability":"view"},{"type":"function","name":"getApproved","inputs":[{"name":"tokenId","type":"uint256","internalType":"uint256"}],"outputs":[{"name":"","type":"address","internalType":"address"}],"stateMutability":"view"},{"type":"function","name":"isApprovedForAll","inputs":[{"name":"owner","type":"address","internalType":"address"},{"name":"operator","type":"address","internalType":"address"}],"outputs":[{"name":"","type":"bool","internalType":"bool"}],"stateMutability":"view"},{"type":"function","name":"mint","inputs":[{"name":"to","type":"address","internalType":"address"}],"outputs":[],"stateMutability":"nonpayable"},{"type":"function","name":"name","inputs":[],"outputs":[{"name":"","type":"string","internalType":"string"}],"stateMutability":"view"},{"type":"function","name":"ownerOf","inputs":[{"name":"tokenId","type":"uint256","internalType":"uint256"}],"outputs":[{"name":"","type":"address","internalType":"address"}],"stateMutability":"view"},{"type":"function","name":"safeTransferFrom","inputs":[{"name":"from","type":"address","internalType":"address"},{"name":"to","type":"address","internalType":"address"},{"name":"tokenId","type":"uint256","internalType":"uint256"}],"outputs":[],"stateMutability":"nonpayable"},{"type":"function","name":"safeTransferFrom","inputs":[{"name":"from","type":"address","internalType":"address"},{"name":"to","type":"address","internalType":"address"},{"name":"tokenId","type":"uint256","internalType":"uint256"},{"name":"data","type":"bytes","internalType":"bytes"}],"outputs":[],"stateMutability":"nonpayable"},{"type":"function","name":"setApprovalForAll","inputs":[{"name":"operator","type":"address","internalType":"address"},{"name":"approved","type":"bool","internalType":"bool"}],"outputs":[],"stateMutability":"nonpayable"},{"type":"function","name":"supportsInterface","inputs":[{"name":"interfaceId","type":"bytes4","internalType":"bytes4"}],"outputs":[{"name":"","type":"bool","internalType":"bool"}],"stateMutability":"view"},{"type":"function","name":"symbol","inputs":[],"outputs":[{"name":"","type":"string","internalType":"string"}],"stateMutability":"view"},{"type":"function","name":"tokenURI","inputs":[{"name":"tokenId","type":"uint256","internalType":"uint256"}],"outputs":[{"name":"","type":"string","internalType":"string"}],"stateMutability":"view"},{"type":"function","name":"transferFrom","inputs":[{"name":"from","type":"address","internalType":"address"},{"name":"to","type":"address","internalType":"address"},{"name":"tokenId","type":"uint256","internalType":"uint256"}],"outputs":[],"stateMutability":"nonpayable"},{"type":"event","name":"Approval","inputs":[{"name":"owner","type":"address","indexed":true,"internalType":"address"},{"name":"approved","type":"address","indexed":true,"internalType":"address"},{"name":"tokenId","type":"uint256","indexed":true,"internalType":"uint256"}],"anonymous":false},{"type":"event","name":"ApprovalForAll","inputs":[{"name":"owner","type":"address","indexed":true,"internalType":"address"},{"name":"operator","type":"address","indexed":true,"internalType":"address"},{"name":"approved","type":"bool","indexed":false,"internalType":"bool"}],"anonymous":false},{"type":"event","name":"Transfer","inputs":[{"name":"from","type":"address","indexed":true,"internalType":"address"},{"name":"to","type":"address","indexed":true,"internalType":"address"},{"name":"tokenId","type":"uint256","indexed":true,"internalType":"uint256"}],"anonymous":false},{"type":"error","name":"ERC721IncorrectOwner","inputs":[{"name":"sender","type":"address","internalType":"address"},{"name":"tokenId","type":"uint256","internalType":"uint256"},{"name":"owner","type":"address","internalType":"address"}]},{"type":"error","name":"ERC721InsufficientApproval","inputs":[{"name":"operator","type":"address","internalType":"address"},{"name":"tokenId","type":"uint256","internalType":"uint256"}]},{"type":"error","name":"ERC721InvalidApprover","inputs":[{"name":"approver","type":"address","internalType":"address"}]},{"type":"error","name":"ERC721InvalidOperator","inputs":[{"name":"operator","type":"address","internalType":"address"}]},{"type":"error","name":"ERC721InvalidOwner","inputs":[{"name":"owner","type":"address","internalType":"address"}]},{"type":"error","name":"ERC721InvalidReceiver","inputs":[{"name":"receiver","type":"address","internalType":"address"}]},{"type":"error","name":"ERC721InvalidSender","inputs":[{"name":"sender","type":"address","internalType":"address"}]},{"type":"error","name":"ERC721NonexistentToken","inputs":[{"name":"tokenId","type":"uint256","internalType":"uint256"}]}],"bytecode":{"object":"0x60806040526001600655348015610014575f5ffd5b506040518060400160405280600a81526020017f4578616d706c654e4654000000000000000000000000000000000000000000008152506040518060400160405280600481526020017f454e465400000000000000000000000000000000000000000000000000000000815250815f908161008f91906102e4565b50806001908161009f91906102e4565b5050506103b3565b5f81519050919050565b7f4e487b71000000000000000000000000000000000000000000000000000000005f52604160045260245ffd5b7f4e487b71000000000000000000000000000000000000000000000000000000005f52602260045260245ffd5b5f600282049050600182168061012257607f821691505b602082108103610135576101346100de565b5b50919050565b5f819050815f5260205f209050919050565b5f6020601f8301049050919050565b5f82821b905092915050565b5f600883026101977fffffffffffffffffffffffffffffffffffffffffffffffffffffffffffffffff8261015c565b6101a1868361015c565b95508019841693508086168417925050509392505050565b5f819050919050565b5f819050919050565b5f6101e56101e06101db846101b9565b6101c2565b6101b9565b9050919050565b5f819050919050565b6101fe836101cb565b61021261020a826101ec565b848454610168565b825550505050565b5f5f905090565b61022961021a565b6102348184846101f5565b505050565b5b818110156102575761024c5f82610221565b60018101905061023a565b5050565b601f82111561029c5761026d8161013b565b6102768461014d565b81016020851015610285578190505b6102996102918561014d565b830182610239565b50505b505050565b5f82821c905092915050565b5f6102bc5f19846008026102a1565b1980831691505092915050565b5f6102d483836102ad565b9150826002028217905092915050565b6102ed826100a7565b67ffffffffffffffff811115610306576103056100b1565b5b610310825461010b565b61031b82828561025b565b5f60209050601f83116001811461034c575f841561033a578287015190505b61034485826102c9565b8655506103ab565b601f19841661035a8661013b565b5f5b828110156103815784890151825560018201915060208501945060208101905061035c565b8683101561039e578489015161039a601f8916826102ad565b8355505b6001600288020188555050505b505050505050565b611db6806103c05f395ff3fe608060405234801561000f575f5ffd5b50600436106100f2575f3560e01c80636352211e11610095578063a22cb46511610064578063a22cb46514610280578063b88d4fde1461029c578063c87b56dd146102b8578063e985e9c5146102e8576100f2565b80636352211e146101e65780636a6278421461021657806370a082311461023257806395d89b4114610262576100f2565b8063081812fc116100d1578063081812fc14610162578063095ea7b31461019257806323b872dd146101ae57806342842e0e146101ca576100f2565b80629a9b7b146100f657806301ffc9a71461011457806306fdde0314610144575b5f5ffd5b6100fe610318565b60405161010b919061159f565b60405180910390f35b61012e6004803603810190610129919061161e565b61031e565b60405161013b9190611663565b60405180910390f35b61014c6103ff565b60405161015991906116ec565b60405180910390f35b61017c60048036038101906101779190611736565b61048e565b60405161018991906117a0565b60405180910390f35b6101ac60048036038101906101a791906117e3565b6104a9565b005b6101c860048036038101906101c39190611821565b6104bf565b005b6101e460048036038101906101df9190611821565b6105be565b005b61020060048036038101906101fb9190611736565b6105dd565b60405161020d91906117a0565b60405180910390f35b610230600480360381019061022b9190611871565b6105ee565b005b61024c60048036038101906102479190611871565b610614565b604051610259919061159f565b60405180910390f35b61026a6106ca565b60405161027791906116ec565b60405180910390f35b61029a600480360381019061029591906118c6565b61075a565b005b6102b660048036038101906102b19190611a30565b610770565b005b6102d260048036038101906102cd9190611736565b61078d565b6040516102df91906116ec565b60405180910390f35b61030260048036038101906102fd9190611ab0565b6107f3565b60405161030f9190611663565b60405180910390f35b60065481565b5f7f80ac58cd000000000000000000000000000000000000000000000000000000007bffffffffffffffffffffffffffffffffffffffffffffffffffffffff1916827bffffffffffffffffffffffffffffffffffffffffffffffffffffffff191614806103e857507f5b5e139f000000000000000000000000000000000000000000000000000000007bffffffffffffffffffffffffffffffffffffffffffffffffffffffff1916827bffffffffffffffffffffffffffffffffffffffffffffffffffffffff1916145b806103f857506103f782610881565b5b9050919050565b60605f805461040d90611b1b565b80601f016020809104026020016040519081016040528092919081815260200182805461043990611b1b565b80156104845780601f1061045b57610100808354040283529160200191610484565b820191905f5260205f20905b81548152906001019060200180831161046757829003601f168201915b5050505050905090565b5f610498826108ea565b506104a282610970565b9050919050565b6104bb82826104b66109a9565b6109b0565b5050565b5f73ffffffffffffffffffffffffffffffffffffffff168273ffffffffffffffffffffffffffffffffffffffff160361052f575f6040517f64a0ae9200000000000000000000000000000000000000000000000000000000815260040161052691906117a0565b60405180910390fd5b5f610542838361053d6109a9565b6109c2565b90508373ffffffffffffffffffffffffffffffffffffffff168173ffffffffffffffffffffffffffffffffffffffff16146105b8578382826040517f64283d7b0000000000000000000000000000000000000000000000000000000081526004016105af93929190611b4b565b60405180910390fd5b50505050565b6105d883838360405180602001604052805f815250610770565b505050565b5f6105e7826108ea565b9050919050565b6105fa81600654610bcd565b60065f81548092919061060c90611bad565b919050555050565b5f5f73ffffffffffffffffffffffffffffffffffffffff168273ffffffffffffffffffffffffffffffffffffffff1603610685575f6040517f89c62b6400000000000000000000000000000000000000000000000000000000815260040161067c91906117a0565b60405180910390fd5b60035f8373ffffffffffffffffffffffffffffffffffffffff1673ffffffffffffffffffffffffffffffffffffffff1681526020019081526020015f20549050919050565b6060600180546106d990611b1b565b80601f016020809104026020016040519081016040528092919081815260200182805461070590611b1b565b80156107505780601f1061072757610100808354040283529160200191610750565b820191905f5260205f20905b81548152906001019060200180831161073357829003601f168201915b5050505050905090565b61076c6107656109a9565b8383610cc0565b5050565b61077b8484846104bf565b61078784848484610e29565b50505050565b6060610798826108ea565b505f6107a2610fdb565b90505f8151116107c05760405180602001604052805f8152506107eb565b806107ca84610ff1565b6040516020016107db929190611c2e565b6040516020818303038152906040525b915050919050565b5f60055f8473ffffffffffffffffffffffffffffffffffffffff1673ffffffffffffffffffffffffffffffffffffffff1681526020019081526020015f205f8373ffffffffffffffffffffffffffffffffffffffff1673ffffffffffffffffffffffffffffffffffffffff1681526020019081526020015f205f9054906101000a900460ff16905092915050565b5f7f01ffc9a7000000000000000000000000000000000000000000000000000000007bffffffffffffffffffffffffffffffffffffffffffffffffffffffff1916827bffffffffffffffffffffffffffffffffffffffffffffffffffffffff1916149050919050565b5f5f6108f5836110bb565b90505f73ffffffffffffffffffffffffffffffffffffffff168173ffffffffffffffffffffffffffffffffffffffff160361096757826040517f7e27328900000000000000000000000000000000000000000000000000000000815260040161095e919061159f565b60405180910390fd5b80915050919050565b5f60045f8381526020019081526020015f205f9054906101000a900473ffffffffffffffffffffffffffffffffffffffff169050919050565b5f33905090565b6109bd83838360016110f4565b505050565b5f5f6109cd846110bb565b90505f73ffffffffffffffffffffffffffffffffffffffff168373ffffffffffffffffffffffffffffffffffffffff1614610a0e57610a0d8184866112b3565b5b5f73ffffffffffffffffffffffffffffffffffffffff168173ffffffffffffffffffffffffffffffffffffffff1614610a9957610a4d5f855f5f6110f4565b600160035f8373ffffffffffffffffffffffffffffffffffffffff1673ffffffffffffffffffffffffffffffffffffffff1681526020019081526020015f205f82825403925050819055505b5f73ffffffffffffffffffffffffffffffffffffffff168573ffffffffffffffffffffffffffffffffffffffff1614610b1857600160035f8773ffffffffffffffffffffffffffffffffffffffff1673ffffffffffffffffffffffffffffffffffffffff1681526020019081526020015f205f82825401925050819055505b8460025f8681526020019081526020015f205f6101000a81548173ffffffffffffffffffffffffffffffffffffffff021916908373ffffffffffffffffffffffffffffffffffffffff160217905550838573ffffffffffffffffffffffffffffffffffffffff168273ffffffffffffffffffffffffffffffffffffffff167fddf252ad1be2c89b69c2b068fc378daa952ba7f163c4a11628f55a4df523b3ef60405160405180910390a4809150509392505050565b5f73ffffffffffffffffffffffffffffffffffffffff168273ffffffffffffffffffffffffffffffffffffffff1603610c3d575f6040517f64a0ae92000000000000000000000000000000000000000000000000000000008152600401610c3491906117a0565b60405180910390fd5b5f610c4983835f6109c2565b90505f73ffffffffffffffffffffffffffffffffffffffff168173ffffffffffffffffffffffffffffffffffffffff1614610cbb575f6040517f73c6ac6e000000000000000000000000000000000000000000000000000000008152600401610cb291906117a0565b60405180910390fd5b505050565b5f73ffffffffffffffffffffffffffffffffffffffff168273ffffffffffffffffffffffffffffffffffffffff1603610d3057816040517f5b08ba18000000000000000000000000000000000000000000000000000000008152600401610d2791906117a0565b60405180910390fd5b8060055f8573ffffffffffffffffffffffffffffffffffffffff1673ffffffffffffffffffffffffffffffffffffffff1681526020019081526020015f205f8473ffffffffffffffffffffffffffffffffffffffff1673ffffffffffffffffffffffffffffffffffffffff1681526020019081526020015f205f6101000a81548160ff0219169083151502179055508173ffffffffffffffffffffffffffffffffffffffff168373ffffffffffffffffffffffffffffffffffffffff167f17307eab39ab6107e8899845ad3d59bd9653f200f220920489ca2b5937696c3183604051610e1c9190611663565b60405180910390a3505050565b5f8373ffffffffffffffffffffffffffffffffffffffff163b1115610fd5578273ffffffffffffffffffffffffffffffffffffffff1663150b7a02610e6c6109a9565b8685856040518563ffffffff1660e01b8152600401610e8e9493929190611ca3565b6020604051808303815f875af1925050508015610ec957506040513d601f19601f82011682018060405250810190610ec69190611d01565b60015b610f4a573d805f8114610ef7576040519150601f19603f3d011682016040523d82523d5f602084013e610efc565b606091505b505f815103610f4257836040517f64a0ae92000000000000000000000000000000000000000000000000000000008152600401610f3991906117a0565b60405180910390fd5b805181602001fd5b63150b7a0260e01b7bffffffffffffffffffffffffffffffffffffffffffffffffffffffff1916817bffffffffffffffffffffffffffffffffffffffffffffffffffffffff191614610fd357836040517f64a0ae92000000000000000000000000000000000000000000000000000000008152600401610fca91906117a0565b60405180910390fd5b505b50505050565b606060405180602001604052805f815250905090565b60605f6001610fff84611376565b0190505f8167ffffffffffffffff81111561101d5761101c61190c565b5b6040519080825280601f01601f19166020018201604052801561104f5781602001600182028036833780820191505090505b5090505f82602001820190505b6001156110b0578080600190039150507f3031323334353637383961626364656600000000000000000000000000000000600a86061a8153600a85816110a5576110a4611d2c565b5b0494505f850361105c575b819350505050919050565b5f60025f8381526020019081526020015f205f9054906101000a900473ffffffffffffffffffffffffffffffffffffffff169050919050565b808061112c57505f73ffffffffffffffffffffffffffffffffffffffff168273ffffffffffffffffffffffffffffffffffffffff1614155b1561125e575f61113b846108ea565b90505f73ffffffffffffffffffffffffffffffffffffffff168373ffffffffffffffffffffffffffffffffffffffff16141580156111a557508273ffffffffffffffffffffffffffffffffffffffff168173ffffffffffffffffffffffffffffffffffffffff1614155b80156111b857506111b681846107f3565b155b156111fa57826040517fa9fbf51f0000000000000000000000000000000000000000000000000000000081526004016111f191906117a0565b60405180910390fd5b811561125c57838573ffffffffffffffffffffffffffffffffffffffff168273ffffffffffffffffffffffffffffffffffffffff167f8c5be1e5ebec7d5bd14f71427d1e84f3dd0314c0f7b2291e5b200ac8c7c3b92560405160405180910390a45b505b8360045f8581526020019081526020015f205f6101000a81548173ffffffffffffffffffffffffffffffffffffffff021916908373ffffffffffffffffffffffffffffffffffffffff16021790555050505050565b6112be8383836114c7565b611371575f73ffffffffffffffffffffffffffffffffffffffff168373ffffffffffffffffffffffffffffffffffffffff160361133257806040517f7e273289000000000000000000000000000000000000000000000000000000008152600401611329919061159f565b60405180910390fd5b81816040517f177e802f000000000000000000000000000000000000000000000000000000008152600401611368929190611d59565b60405180910390fd5b505050565b5f5f5f90507a184f03e93ff9f4daa797ed6e38ed64bf6a1f01000000000000000083106113d2577a184f03e93ff9f4daa797ed6e38ed64bf6a1f01000000000000000083816113c8576113c7611d2c565b5b0492506040810190505b6d04ee2d6d415b85acef8100000000831061140f576d04ee2d6d415b85acef8100000000838161140557611404611d2c565b5b0492506020810190505b662386f26fc10000831061143e57662386f26fc10000838161143457611433611d2c565b5b0492506010810190505b6305f5e1008310611467576305f5e100838161145d5761145c611d2c565b5b0492506008810190505b612710831061148c57612710838161148257611481611d2c565b5b0492506004810190505b606483106114af57606483816114a5576114a4611d2c565b5b0492506002810190505b600a83106114be576001810190505b80915050919050565b5f5f73ffffffffffffffffffffffffffffffffffffffff168373ffffffffffffffffffffffffffffffffffffffff161415801561157e57508273ffffffffffffffffffffffffffffffffffffffff168473ffffffffffffffffffffffffffffffffffffffff16148061153f575061153e84846107f3565b5b8061157d57508273ffffffffffffffffffffffffffffffffffffffff1661156583610970565b73ffffffffffffffffffffffffffffffffffffffff16145b5b90509392505050565b5f819050919050565b61159981611587565b82525050565b5f6020820190506115b25f830184611590565b92915050565b5f604051905090565b5f5ffd5b5f5ffd5b5f7fffffffff0000000000000000000000000000000000000000000000000000000082169050919050565b6115fd816115c9565b8114611607575f5ffd5b50565b5f81359050611618816115f4565b92915050565b5f60208284031215611633576116326115c1565b5b5f6116408482850161160a565b91505092915050565b5f8115159050919050565b61165d81611649565b82525050565b5f6020820190506116765f830184611654565b92915050565b5f81519050919050565b5f82825260208201905092915050565b8281835e5f83830152505050565b5f601f19601f8301169050919050565b5f6116be8261167c565b6116c88185611686565b93506116d8818560208601611696565b6116e1816116a4565b840191505092915050565b5f6020820190508181035f83015261170481846116b4565b905092915050565b61171581611587565b811461171f575f5ffd5b50565b5f813590506117308161170c565b92915050565b5f6020828403121561174b5761174a6115c1565b5b5f61175884828501611722565b91505092915050565b5f73ffffffffffffffffffffffffffffffffffffffff82169050919050565b5f61178a82611761565b9050919050565b61179a81611780565b82525050565b5f6020820190506117b35f830184611791565b92915050565b6117c281611780565b81146117cc575f5ffd5b50565b5f813590506117dd816117b9565b92915050565b5f5f604083850312156117f9576117f86115c1565b5b5f611806858286016117cf565b925050602061181785828601611722565b9150509250929050565b5f5f5f60608486031215611838576118376115c1565b5b5f611845868287016117cf565b9350506020611856868287016117cf565b925050604061186786828701611722565b9150509250925092565b5f60208284031215611886576118856115c1565b5b5f611893848285016117cf565b91505092915050565b6118a581611649565b81146118af575f5ffd5b50565b5f813590506118c08161189c565b92915050565b5f5f604083850312156118dc576118db6115c1565b5b5f6118e9858286016117cf565b92505060206118fa858286016118b2565b9150509250929050565b5f5ffd5b5f5ffd5b7f4e487b71000000000000000000000000000000000000000000000000000000005f52604160045260245ffd5b611942826116a4565b810181811067ffffffffffffffff821117156119615761196061190c565b5b80604052505050565b5f6119736115b8565b905061197f8282611939565b919050565b5f67ffffffffffffffff82111561199e5761199d61190c565b5b6119a7826116a4565b9050602081019050919050565b828183375f83830152505050565b5f6119d46119cf84611984565b61196a565b9050828152602081018484840111156119f0576119ef611908565b5b6119fb8482856119b4565b509392505050565b5f82601f830112611a1757611a16611904565b5b8135611a278482602086016119c2565b91505092915050565b5f5f5f5f60808587031215611a4857611a476115c1565b5b5f611a55878288016117cf565b9450506020611a66878288016117cf565b9350506040611a7787828801611722565b925050606085013567ffffffffffffffff811115611a9857611a976115c5565b5b611aa487828801611a03565b91505092959194509250565b5f5f60408385031215611ac657611ac56115c1565b5b5f611ad3858286016117cf565b9250506020611ae4858286016117cf565b9150509250929050565b7f4e487b71000000000000000000000000000000000000000000000000000000005f52602260045260245ffd5b5f6002820490506001821680611b3257607f821691505b602082108103611b4557611b44611aee565b5b50919050565b5f606082019050611b5e5f830186611791565b611b6b6020830185611590565b611b786040830184611791565b949350505050565b7f4e487b71000000000000000000000000000000000000000000000000000000005f52601160045260245ffd5b5f611bb782611587565b91507fffffffffffffffffffffffffffffffffffffffffffffffffffffffffffffffff8203611be957611be8611b80565b5b600182019050919050565b5f81905092915050565b5f611c088261167c565b611c128185611bf4565b9350611c22818560208601611696565b80840191505092915050565b5f611c398285611bfe565b9150611c458284611bfe565b91508190509392505050565b5f81519050919050565b5f82825260208201905092915050565b5f611c7582611c51565b611c7f8185611c5b565b9350611c8f818560208601611696565b611c98816116a4565b840191505092915050565b5f608082019050611cb65f830187611791565b611cc36020830186611791565b611cd06040830185611590565b8181036060830152611ce28184611c6b565b905095945050505050565b5f81519050611cfb816115f4565b92915050565b5f60208284031215611d1657611d156115c1565b5b5f611d2384828501611ced565b91505092915050565b7f4e487b71000000000000000000000000000000000000000000000000000000005f52601260045260245ffd5b5f604082019050611d6c5f830185611791565b611d796020830184611590565b939250505056fea2646970667358221220952351198ed738fc016713c841e557c5836c806e7f5c2acdfa27038eddc484aa64736f6c634300081e0033","linkReferences":{}},"methodIdentifiers":{"approve(address,uint256)":"095ea7b3","balanceOf(address)":"70a08231","currentTokenId()":"009a9b7b","getApproved(uint256)":"081812fc","isApprovedForAll(address,address)":"e985e9c5","mint(address)":"6a627842","name()":"06fdde03","ownerOf(uint256)":"6352211e","safeTransferFrom(address,address,uint256)":"42842e0e","safeTransferFrom(address,address,uint256,bytes)":"b88d4fde","setApprovalForAll(address,bool)":"a22cb465","supportsInterface(bytes4)":"01ffc9a7","symbol()":"95d89b41","tokenURI(uint256)":"c87b56dd","transferFrom(address,address,uint256)":"23b872dd"},"id":71}