{"abi":[{"type":"function","name":"verifyProof","inputs":[{"name":"_pA","type":"uint256[2]","internalType":"uint256[2]"},{"name":"_pB","type":"uint256[2][2]","internalType":"uint256[2][2]"},{"name":"_pC","type":"uint256[2]","internalType":"uint256[2]"},{"name":"_pubSignals","type":"uint256[5]","internalType":"uint256[5]"}],"outputs":[{"name":"","type":"bool","internalType":"bool"}],"stateMutability":"view"}],"bytecode":{"object":"0x6080604052348015600e575f5ffd5b506107578061001c5f395ff3fe608060405234801561000f575f5ffd5b5060043610610029575f3560e01c806334baeab91461002d575b5f5ffd5b61004760048036038101906100429190610688565b61005d565b6040516100549190610708565b60405180910390f35b5f6105bd565b7f30644e72e131a029b85045b68181585d2833e84879b9709143e1f593f00000018110610092575f5f5260205ff35b50565b5f60405183815284602082015285604082015260408160608360076107d05a03fa9150816100c5575f5f5260205ff35b825160408201526020830151606082015260408360808360066107d05a03fa9150816100f3575f5f5260205ff35b505050505050565b5f608086015f87017f12ac9a25dcd5e1a832a9061a082c15dd1d61aa9c4d553505739d0f5d65dc3be481527f025aa744581ebe7ad91731911c898569106ff5a2d30f3eee2b23c60ee980acd4602082015261019b5f8801357f2e32a094b7589554f7bc357bf63481acd2d55555c203383782a4650787ff66427f0707b920bc978c02f292fae2036e057be54294114ccc3c8769d883f688a1423f84610095565b6101eb60208801357f2ede7c9acf48cf3a3729fa3d68714e2a8435d4fa6db8f7f409c153b1fcdf9b8b7f0bca36e2cbe6394b3e249751853f961511011c7148e336f4fd974644850fc34784610095565b61023b60408801357f2b91a26aa92e1b6f5722949f192a81c850d586d81a60157f3e9cf04f679cccd67f1b8af999dbfbb3927c091cc2aaf201e488cbacc3e2c6b6fb5a25f9112e04f2a784610095565b61028b60608801357f2fe520ad2020aab9cbba817fcbb9a863b8a76ff88f14f912c5e71665b2ad5e827f2b5f494ed674235b8ac1750bdfd5a7615f002d4a1dcefeddd06eda5a076ccd0d84610095565b6102db60808801357f214bfcff74f425f6fe8c0d07b307482d8bc8bb2f3608f68287aa01bd0b69e8097f0f1c3c0d5d9da0fa03666843cde4e82e869ba5252fce3c25d5940320b1c4d49384610095565b833582527f30644e72e131a029b85045b68181585d97816a916871ca8d3c208c16d87cfd4760208501357f30644e72e131a029b85045b68181585d97816a916871ca8d3c208c16d87cfd4703066020830152843560408301526020850135606083015260408501356080830152606085013560a08301527f2d4d9aa7e302d9df41749d5507949d05dbea33fbb16c643b22f599a2be6df2e260c08301527f14bedd503c37ceb061d8ec60209fe345ce89830a19230301f076caff004d192660e08301527f0967032fcbf776d1afc985f88877f182d38480a653f2decaa9794cbc3bf3060c6101008301527f0e187847ad4c798374d0d6732bf501847dd68bc0e071241e0213bc7fc13db7ab6101208301527f304cfbd1e08a704a99f5e847d93f8c3caafddec46b7a0d379da69a4d112346a76101408301527f1739c1b1a457a8c7313123d24d2f9192f896b7c63eea05a9d57f06547ad0cec86101608301525f88015161018083015260205f018801516101a08301527f198e9393920d483a7260bfb731fb5d25f1aa493335a9e71297e485b7aef312c26101c08301527f1800deef121f1e76426a00665e5c4479674322d4f75edadd46debd5cd992f6ed6101e08301527f090689d0585ff075ec9e99ad690c3395bc4b313370b38ef355acdadcd122975b6102008301527f12c85ea5db8c6deb4aab71808dcb408fe3d1e7690c43d37b4ce6cc0166fa7daa610220830152853561024083015260208601356102608301527f03b03cd5effa95ac9bee94f1f5ef907157bda4812ccf0b4c91f42bb629f83a1c6102808301527f1aa085ff28179a12d922dba0547057ccaae94b9d69cfaa4e60401fea7f3e03336102a08301527f110c10134f200b19f6490846d518c9aea868366efb7228ca5c91d2940d0307626102c08301527f1e60f31fcbf757e837e867178318832d0b2d74d59e2fea1c7142df187d3fc6d36102e08301526020826103008460086107d05a03fa82518116935050505095945050505050565b60405161038081016040526105d45f840135610063565b6105e16020840135610063565b6105ee6040840135610063565b6105fb6060840135610063565b6106086080840135610063565b610615818486888a6100fb565b805f5260205ff35b5f5ffd5b5f5ffd5b5f819050826020600202820111156106405761063f610621565b5b92915050565b5f8190508260406002028201111561066157610660610621565b5b92915050565b5f8190508260206005028201111561068257610681610621565b5b92915050565b5f5f5f5f6101a085870312156106a1576106a061061d565b5b5f6106ae87828801610625565b94505060406106bf87828801610646565b93505060c06106d087828801610625565b9250506101006106e287828801610667565b91505092959194509250565b5f8115159050919050565b610702816106ee565b82525050565b5f60208201905061071b5f8301846106f9565b9291505056fea2646970667358221220d1771a259043ffce86b6bdbfd37f19f6f14ac365731acb3f573e0edde90f206f64736f6c634300081e0033","linkReferences":{}},"methodIdentifiers":{"verifyProof(uint256[2],uint256[2][2],uint256[2],uint256[5])":"34baeab9"},"id":49}