{"abi":[{"type":"function","name":"BN254_CONTROL_ID","inputs":[],"outputs":[{"name":"","type":"bytes32","internalType":"bytes32"}],"stateMutability":"view"},{"type":"function","name":"CONTROL_ROOT","inputs":[],"outputs":[{"name":"","type":"bytes32","internalType":"bytes32"}],"stateMutability":"view"}],"bytecode":{"object":"0x61011f61004d600b8282823980515f1a6073146041577f4e487b71000000000000000000000000000000000000000000000000000000005f525f60045260245ffd5b305f52607381538281f3fe7300000000000000000000000000000000000000003014608060405260043610603c575f3560e01c8063258038e2146040578063d3f4ed9114605a575b5f5ffd5b60466074565b6040516051919060d2565b60405180910390f35b60606098565b604051606b919060d2565b60405180910390f35b7f04446e66d300eb7fb45c9726bb53c793dda407a62e9601618bb43c5c14657ac081565b7f539032186827b06719244873b17b2d4c122e2d02cfb1994fe958b2523b84457681565b5f819050919050565b60cc8160bc565b82525050565b5f60208201905060e35f83018460c5565b9291505056fea2646970667358221220bc2aa9b5848f09fc8e78d1acb7fe363207c63a69d7e1544e2faa9875c307665a64736f6c634300081e0033","linkReferences":{}},"methodIdentifiers":{"BN254_CONTROL_ID()":"258038e2","CONTROL_ROOT()":"d3f4ed91"},"id":48}