{"abi":[{"type":"function","name":"proof","inputs":[],"outputs":[{"name":"","type":"tuple","internalType":"struct Proof","components":[{"name":"seal","type":"tuple","internalType":"struct Seal","components":[{"name":"verifierSelector","type":"bytes4","internalType":"bytes4"},{"name":"seal","type":"bytes32[8]","internalType":"bytes32[8]"},{"name":"mode","type":"uint8","internalType":"enum ProofMode"}]},{"name":"callGuestId","type":"bytes32","internalType":"bytes32"},{"name":"length","type":"uint256","internalType":"uint256"},{"name":"callAssumptions","type":"tuple","internalType":"struct CallAssumptions","components":[{"name":"proverContractAddress","type":"address","internalType":"address"},{"name":"functionSelector","type":"bytes4","internalType":"bytes4"},{"name":"settleChainId","type":"uint256","internalType":"uint256"},{"name":"settleBlockNumber","type":"uint256","internalType":"uint256"},{"name":"settleBlockHash","type":"bytes32","internalType":"bytes32"}]}]}],"stateMutability":"pure"},{"type":"function","name":"setBlock","inputs":[{"name":"blockNo","type":"uint256","internalType":"uint256"}],"outputs":[],"stateMutability":"nonpayable"},{"type":"function","name":"setChain","inputs":[{"name":"chainId","type":"uint256","internalType":"uint256"},{"name":"blockNo","type":"uint256","internalType":"uint256"}],"outputs":[],"stateMutability":"nonpayable"}],"bytecode":{"object":"0x6080604052348015600e575f5ffd5b5061084b8061001c5f395ff3fe608060405234801561000f575f5ffd5b506004361061003f575f3560e01c806387cea3ae14610043578063faf924cf1461005f578063ffbc56381461007d575b5f5ffd5b61005d600480360381019061005891906103c3565b610099565b005b610067610176565b6040516100749190610696565b60405180910390f35b610097600480360381019061009291906106b0565b61018b565b005b7f2ae215ce9fde588adfdea92976dc9aa45aa006a0f63942d8f9f21bd4537972a35f1c73ffffffffffffffffffffffffffffffffffffffff166387cea3ae826040518263ffffffff1660e01b81526004016100f491906106fd565b6020604051808303815f875af1158015610110573d5f5f3e3d5ffd5b505050506040513d601f19601f82011682018060405250810190610134919061074b565b610173576040517f08c379a000000000000000000000000000000000000000000000000000000000815260040161016a906107d0565b60405180910390fd5b50565b61017e610282565b61018661026b565b905090565b7f2ae215ce9fde588adfdea92976dc9aa45aa006a0f63942d8f9f21bd4537972a35f1c73ffffffffffffffffffffffffffffffffffffffff1663ffbc563883836040518363ffffffff1660e01b81526004016101e89291906107ee565b6020604051808303815f875af1158015610204573d5f5f3e3d5ffd5b505050506040513d601f19601f82011682018060405250810190610228919061074b565b610267576040517f08c379a000000000000000000000000000000000000000000000000000000000815260040161025e906107d0565b60405180910390fd5b5050565b610273610282565b61027b610282565b8091505090565b60405180608001604052806102956102b4565b81526020015f81526020015f81526020016102ae61030a565b81525090565b60405180606001604052805f7bffffffffffffffffffffffffffffffffffffffffffffffffffffffff191681526020016102ec610369565b81526020015f6001811115610304576103036104d6565b5b81525090565b6040518060a001604052805f73ffffffffffffffffffffffffffffffffffffffff1681526020015f7bffffffffffffffffffffffffffffffffffffffffffffffffffffffff191681526020015f81526020015f81526020015f81525090565b604051806101000160405280600890602082028036833780820191505090505090565b5f5ffd5b5f819050919050565b6103a281610390565b81146103ac575f5ffd5b50565b5f813590506103bd81610399565b92915050565b5f602082840312156103d8576103d761038c565b5b5f6103e5848285016103af565b91505092915050565b5f7fffffffff0000000000000000000000000000000000000000000000000000000082169050919050565b610422816103ee565b82525050565b5f60089050919050565b5f81905092915050565b5f819050919050565b5f819050919050565b61045781610445565b82525050565b5f610468838361044e565b60208301905092915050565b5f602082019050919050565b61048981610428565b6104938184610432565b925061049e8261043c565b805f5b838110156104ce5781516104b5878261045d565b96506104c083610474565b9250506001810190506104a1565b505050505050565b7f4e487b71000000000000000000000000000000000000000000000000000000005f52602160045260245ffd5b60028110610514576105136104d6565b5b50565b5f81905061052482610503565b919050565b5f61053382610517565b9050919050565b61054381610529565b82525050565b61014082015f82015161055e5f850182610419565b5060208201516105716020850182610480565b50604082015161058561012085018261053a565b50505050565b61059481610390565b82525050565b5f73ffffffffffffffffffffffffffffffffffffffff82169050919050565b5f6105c38261059a565b9050919050565b6105d3816105b9565b82525050565b60a082015f8201516105ed5f8501826105ca565b5060208201516106006020850182610419565b506040820151610613604085018261058b565b506060820151610626606085018261058b565b506080820151610639608085018261044e565b50505050565b61022082015f8201516106545f850182610549565b50602082015161066861014085018261044e565b50604082015161067c61016085018261058b565b5060608201516106906101808501826105d9565b50505050565b5f610220820190506106aa5f83018461063f565b92915050565b5f5f604083850312156106c6576106c561038c565b5b5f6106d3858286016103af565b92505060206106e4858286016103af565b9150509250929050565b6106f781610390565b82525050565b5f6020820190506107105f8301846106ee565b92915050565b5f8115159050919050565b61072a81610716565b8114610734575f5ffd5b50565b5f8151905061074581610721565b92915050565b5f602082840312156107605761075f61038c565b5b5f61076d84828501610737565b91505092915050565b5f82825260208201905092915050565b7f4661696c6564206368656174636f646520696e766f636174696f6e00000000005f82015250565b5f6107ba601b83610776565b91506107c582610786565b602082019050919050565b5f6020820190508181035f8301526107e7816107ae565b9050919050565b5f6040820190506108015f8301856106ee565b61080e60208301846106ee565b939250505056fea26469706673582212207a7e1929dc14fab5ae15a5550f685f6053e62fd39a8d6ca9e0c2765dbd40e4dd64736f6c634300081e0033","linkReferences":{}},"methodIdentifiers":{"proof()":"faf924cf","setBlock(uint256)":"87cea3ae","setChain(uint256,uint256)":"ffbc5638"},"id":57}