{"abi":[{"type":"function","name":"CALL_ASSUMPTIONS_OFFSET","inputs":[],"outputs":[{"name":"","type":"uint256","internalType":"uint256"}],"stateMutability":"view"},{"type":"function","name":"PROOF_ENCODING_LENGTH","inputs":[],"outputs":[{"name":"","type":"uint256","internalType":"uint256"}],"stateMutability":"view"}],"bytecode":{"object":"0x6101ea61004d600b8282823980515f1a6073146041577f4e487b71000000000000000000000000000000000000000000000000000000005f525f60045260245ffd5b305f52607381538281f3fe730000000000000000000000000000000000000000301460806040526004361061003f575f3560e01c8063cddf0a5614610043578063e1a42c8814610061575b5f5ffd5b61004b61007f565b604051610058919061013b565b60405180910390f35b6100696100b4565b604051610076919061013b565b60405180910390f35b602080602061010060206100939190610181565b61009d9190610181565b6100a79190610181565b6100b19190610181565b81565b60208060208060206100c69190610181565b6100d09190610181565b6100da9190610181565b6100e49190610181565b602080602061010060206100f89190610181565b6101029190610181565b61010c9190610181565b6101169190610181565b6101209190610181565b81565b5f819050919050565b61013581610123565b82525050565b5f60208201905061014e5f83018461012c565b92915050565b7f4e487b71000000000000000000000000000000000000000000000000000000005f52601160045260245ffd5b5f61018b82610123565b915061019683610123565b92508282019050808211156101ae576101ad610154565b5b9291505056fea26469706673582212208f6d73afb0aa6179aea06b23bc7c66945fbc016534f5a5e5eece473a513a54ff64736f6c634300081e0033","linkReferences":{}},"methodIdentifiers":{"CALL_ASSUMPTIONS_OFFSET()":"cddf0a56","PROOF_ENCODING_LENGTH()":"e1a42c88"},"id":56}