{"abi":[{"type":"constructor","inputs":[{"name":"_token","type":"address","internalType":"contract IERC20"}],"stateMutability":"nonpayable"},{"type":"function","name":"TOKEN","inputs":[],"outputs":[{"name":"","type":"address","internalType":"contract IERC20"}],"stateMutability":"view"},{"type":"function","name":"balance","inputs":[{"name":"_owner","type":"address","internalType":"address"}],"outputs":[{"name":"","type":"tuple","internalType":"struct Proof","components":[{"name":"seal","type":"tuple","internalType":"struct Seal","components":[{"name":"verifierSelector","type":"bytes4","internalType":"bytes4"},{"name":"seal","type":"bytes32[8]","internalType":"bytes32[8]"},{"name":"mode","type":"uint8","internalType":"enum ProofMode"}]},{"name":"callGuestId","type":"bytes32","internalType":"bytes32"},{"name":"length","type":"uint256","internalType":"uint256"},{"name":"callAssumptions","type":"tuple","internalType":"struct CallAssumptions","components":[{"name":"proverContractAddress","type":"address","internalType":"address"},{"name":"functionSelector","type":"bytes4","internalType":"bytes4"},{"name":"settleChainId","type":"uint256","internalType":"uint256"},{"name":"settleBlockNumber","type":"uint256","internalType":"uint256"},{"name":"settleBlockHash","type":"bytes32","internalType":"bytes32"}]}]},{"name":"","type":"address","internalType":"address"},{"name":"","type":"uint256","internalType":"uint256"}],"stateMutability":"nonpayable"},{"type":"function","name":"proof","inputs":[],"outputs":[{"name":"","type":"tuple","internalType":"struct Proof","components":[{"name":"seal","type":"tuple","internalType":"struct Seal","components":[{"name":"verifierSelector","type":"bytes4","internalType":"bytes4"},{"name":"seal","type":"bytes32[8]","internalType":"bytes32[8]"},{"name":"mode","type":"uint8","internalType":"enum ProofMode"}]},{"name":"callGuestId","type":"bytes32","internalType":"bytes32"},{"name":"length","type":"uint256","internalType":"uint256"},{"name":"callAssumptions","type":"tuple","internalType":"struct CallAssumptions","components":[{"name":"proverContractAddress","type":"address","internalType":"address"},{"name":"functionSelector","type":"bytes4","internalType":"bytes4"},{"name":"settleChainId","type":"uint256","internalType":"uint256"},{"name":"settleBlockNumber","type":"uint256","internalType":"uint256"},{"name":"settleBlockHash","type":"bytes32","internalType":"bytes32"}]}]}],"stateMutability":"pure"},{"type":"function","name":"setBlock","inputs":[{"name":"blockNo","type":"uint256","internalType":"uint256"}],"outputs":[],"stateMutability":"nonpayable"},{"type":"function","name":"setChain","inputs":[{"name":"chainId","type":"uint256","internalType":"uint256"},{"name":"blockNo","type":"uint256","internalType":"uint256"}],"outputs":[],"stateMutability":"nonpayable"}],"bytecode":{"object":"0x60a060405234801561000f575f5ffd5b50604051610c1e380380610c1e833981810160405281019061003191906100da565b8073ffffffffffffffffffffffffffffffffffffffff1660808173ffffffffffffffffffffffffffffffffffffffff168152505050610105565b5f5ffd5b5f73ffffffffffffffffffffffffffffffffffffffff82169050919050565b5f6100988261006f565b9050919050565b5f6100a98261008e565b9050919050565b6100b98161009f565b81146100c3575f5ffd5b50565b5f815190506100d4816100b0565b92915050565b5f602082840312156100ef576100ee61006b565b5b5f6100fc848285016100c6565b91505092915050565b608051610afa6101245f395f8181610101015261020d0152610afa5ff3fe608060405234801561000f575f5ffd5b5060043610610055575f3560e01c806382bfefc81461005957806387cea3ae14610077578063e3d670d714610093578063faf924cf146100c5578063ffbc5638146100e3575b5f5ffd5b6100616100ff565b60405161006e919061054d565b60405180910390f35b610091600480360381019061008c919061059d565b610123565b005b6100ad60048036038101906100a89190610603565b610200565b6040516100bc939291906108c4565b60405180910390f35b6100cd6102bd565b6040516100da91906108fc565b60405180910390f35b6100fd60048036038101906100f89190610916565b6102d2565b005b7f000000000000000000000000000000000000000000000000000000000000000081565b7f2ae215ce9fde588adfdea92976dc9aa45aa006a0f63942d8f9f21bd4537972a35f1c73ffffffffffffffffffffffffffffffffffffffff166387cea3ae826040518263ffffffff1660e01b815260040161017e9190610954565b6020604051808303815f875af115801561019a573d5f5f3e3d5ffd5b505050506040513d601f19601f820116820180604052508101906101be91906109a2565b6101fd576040517f08c379a00000000000000000000000000000000000000000000000000000000081526004016101f490610a27565b60405180910390fd5b50565b6102086103c9565b5f5f5f7f000000000000000000000000000000000000000000000000000000000000000073ffffffffffffffffffffffffffffffffffffffff166370a08231866040518263ffffffff1660e01b81526004016102649190610a45565b602060405180830381865afa15801561027f573d5f5f3e3d5ffd5b505050506040513d601f19601f820116820180604052508101906102a39190610a72565b90506102ad6102bd565b8582935093509350509193909250565b6102c56103c9565b6102cd6103b2565b905090565b7f2ae215ce9fde588adfdea92976dc9aa45aa006a0f63942d8f9f21bd4537972a35f1c73ffffffffffffffffffffffffffffffffffffffff1663ffbc563883836040518363ffffffff1660e01b815260040161032f929190610a9d565b6020604051808303815f875af115801561034b573d5f5f3e3d5ffd5b505050506040513d601f19601f8201168201806040525081019061036f91906109a2565b6103ae576040517f08c379a00000000000000000000000000000000000000000000000000000000081526004016103a590610a27565b60405180910390fd5b5050565b6103ba6103c9565b6103c26103c9565b8091505090565b60405180608001604052806103dc6103fb565b81526020015f81526020015f81526020016103f5610451565b81525090565b60405180606001604052805f7bffffffffffffffffffffffffffffffffffffffffffffffffffffffff191681526020016104336104b0565b81526020015f600181111561044b5761044a610716565b5b81525090565b6040518060a001604052805f73ffffffffffffffffffffffffffffffffffffffff1681526020015f7bffffffffffffffffffffffffffffffffffffffffffffffffffffffff191681526020015f81526020015f81526020015f81525090565b604051806101000160405280600890602082028036833780820191505090505090565b5f73ffffffffffffffffffffffffffffffffffffffff82169050919050565b5f819050919050565b5f61051561051061050b846104d3565b6104f2565b6104d3565b9050919050565b5f610526826104fb565b9050919050565b5f6105378261051c565b9050919050565b6105478161052d565b82525050565b5f6020820190506105605f83018461053e565b92915050565b5f5ffd5b5f819050919050565b61057c8161056a565b8114610586575f5ffd5b50565b5f8135905061059781610573565b92915050565b5f602082840312156105b2576105b1610566565b5b5f6105bf84828501610589565b91505092915050565b5f6105d2826104d3565b9050919050565b6105e2816105c8565b81146105ec575f5ffd5b50565b5f813590506105fd816105d9565b92915050565b5f6020828403121561061857610617610566565b5b5f610625848285016105ef565b91505092915050565b5f7fffffffff0000000000000000000000000000000000000000000000000000000082169050919050565b6106628161062e565b82525050565b5f60089050919050565b5f81905092915050565b5f819050919050565b5f819050919050565b61069781610685565b82525050565b5f6106a8838361068e565b60208301905092915050565b5f602082019050919050565b6106c981610668565b6106d38184610672565b92506106de8261067c565b805f5b8381101561070e5781516106f5878261069d565b9650610700836106b4565b9250506001810190506106e1565b505050505050565b7f4e487b71000000000000000000000000000000000000000000000000000000005f52602160045260245ffd5b6002811061075457610753610716565b5b50565b5f81905061076482610743565b919050565b5f61077382610757565b9050919050565b61078381610769565b82525050565b61014082015f82015161079e5f850182610659565b5060208201516107b160208501826106c0565b5060408201516107c561012085018261077a565b50505050565b6107d48161056a565b82525050565b6107e3816105c8565b82525050565b60a082015f8201516107fd5f8501826107da565b5060208201516108106020850182610659565b50604082015161082360408501826107cb565b50606082015161083660608501826107cb565b506080820151610849608085018261068e565b50505050565b61022082015f8201516108645f850182610789565b50602082015161087861014085018261068e565b50604082015161088c6101608501826107cb565b5060608201516108a06101808501826107e9565b50505050565b6108af816105c8565b82525050565b6108be8161056a565b82525050565b5f610260820190506108d85f83018661084f565b6108e66102208301856108a6565b6108f46102408301846108b5565b949350505050565b5f610220820190506109105f83018461084f565b92915050565b5f5f6040838503121561092c5761092b610566565b5b5f61093985828601610589565b925050602061094a85828601610589565b9150509250929050565b5f6020820190506109675f8301846108b5565b92915050565b5f8115159050919050565b6109818161096d565b811461098b575f5ffd5b50565b5f8151905061099c81610978565b92915050565b5f602082840312156109b7576109b6610566565b5b5f6109c48482850161098e565b91505092915050565b5f82825260208201905092915050565b7f4661696c6564206368656174636f646520696e766f636174696f6e00000000005f82015250565b5f610a11601b836109cd565b9150610a1c826109dd565b602082019050919050565b5f6020820190508181035f830152610a3e81610a05565b9050919050565b5f602082019050610a585f8301846108a6565b92915050565b5f81519050610a6c81610573565b92915050565b5f60208284031215610a8757610a86610566565b5b5f610a9484828501610a5e565b91505092915050565b5f604082019050610ab05f8301856108b5565b610abd60208301846108b5565b939250505056fea264697066735822122070557ef7dbdc4126d24cc2d1ae3273253265272e455100759299231dddbf5abd64736f6c634300081e0033","linkReferences":{}},"methodIdentifiers":{"TOKEN()":"82bfefc8","balance(address)":"e3d670d7","proof()":"faf924cf","setBlock(uint256)":"87cea3ae","setChain(uint256,uint256)":"ffbc5638"},"id":73}