{"abi":[{"type":"constructor","inputs":[{"name":"admin","type":"address","internalType":"address"},{"name":"owner","type":"address","internalType":"address"}],"stateMutability":"nonpayable"},{"type":"function","name":"DEFAULT_ADMIN_ROLE","inputs":[],"outputs":[{"name":"","type":"bytes32","internalType":"bytes32"}],"stateMutability":"view"},{"type":"function","name":"OWNER_ROLE","inputs":[],"outputs":[{"name":"","type":"bytes32","internalType":"bytes32"}],"stateMutability":"view"},{"type":"function","name":"addDnsKey","inputs":[{"name":"key","type":"bytes","internalType":"bytes"}],"outputs":[],"stateMutability":"nonpayable"},{"type":"function","name":"addImageIdSupport","inputs":[{"name":"imageId","type":"bytes32","internalType":"bytes32"}],"outputs":[],"stateMutability":"nonpayable"},{"type":"function","name":"addNotaryKey","inputs":[{"name":"key","type":"string","internalType":"string"}],"outputs":[],"stateMutability":"nonpayable"},{"type":"function","name":"getRoleAdmin","inputs":[{"name":"role","type":"bytes32","internalType":"bytes32"}],"outputs":[{"name":"","type":"bytes32","internalType":"bytes32"}],"stateMutability":"view"},{"type":"function","name":"getRoleMember","inputs":[{"name":"role","type":"bytes32","internalType":"bytes32"},{"name":"index","type":"uint256","internalType":"uint256"}],"outputs":[{"name":"","type":"address","internalType":"address"}],"stateMutability":"view"},{"type":"function","name":"getRoleMemberCount","inputs":[{"name":"role","type":"bytes32","internalType":"bytes32"}],"outputs":[{"name":"","type":"uint256","internalType":"uint256"}],"stateMutability":"view"},{"type":"function","name":"grantRole","inputs":[{"name":"role","type":"bytes32","internalType":"bytes32"},{"name":"account","type":"address","internalType":"address"}],"outputs":[],"stateMutability":"nonpayable"},{"type":"function","name":"hasRole","inputs":[{"name":"role","type":"bytes32","internalType":"bytes32"},{"name":"account","type":"address","internalType":"address"}],"outputs":[{"name":"","type":"bool","internalType":"bool"}],"stateMutability":"view"},{"type":"function","name":"isDnsKeyValid","inputs":[{"name":"key","type":"bytes","internalType":"bytes"}],"outputs":[{"name":"","type":"bool","internalType":"bool"}],"stateMutability":"view"},{"type":"function","name":"isImageSupported","inputs":[{"name":"imageId","type":"bytes32","internalType":"bytes32"}],"outputs":[{"name":"","type":"bool","internalType":"bool"}],"stateMutability":"view"},{"type":"function","name":"isNotaryKeyValid","inputs":[{"name":"key","type":"string","internalType":"string"}],"outputs":[{"name":"","type":"bool","internalType":"bool"}],"stateMutability":"view"},{"type":"function","name":"renounceRole","inputs":[{"name":"role","type":"bytes32","internalType":"bytes32"},{"name":"callerConfirmation","type":"address","internalType":"address"}],"outputs":[],"stateMutability":"nonpayable"},{"type":"function","name":"revokeDnsKey","inputs":[{"name":"key","type":"bytes","internalType":"bytes"}],"outputs":[],"stateMutability":"nonpayable"},{"type":"function","name":"revokeImageIdSupport","inputs":[{"name":"imageId","type":"bytes32","internalType":"bytes32"}],"outputs":[],"stateMutability":"nonpayable"},{"type":"function","name":"revokeNotaryKey","inputs":[{"name":"key","type":"string","internalType":"string"}],"outputs":[],"stateMutability":"nonpayable"},{"type":"function","name":"revokeRole","inputs":[{"name":"role","type":"bytes32","internalType":"bytes32"},{"name":"account","type":"address","internalType":"address"}],"outputs":[],"stateMutability":"nonpayable"},{"type":"function","name":"supportsInterface","inputs":[{"name":"interfaceId","type":"bytes4","internalType":"bytes4"}],"outputs":[{"name":"","type":"bool","internalType":"bool"}],"stateMutability":"view"},{"type":"function","name":"transferAdminRole","inputs":[{"name":"newAdmin","type":"address","internalType":"address"}],"outputs":[],"stateMutability":"nonpayable"},{"type":"function","name":"transferOwnership","inputs":[{"name":"newOwner","type":"address","internalType":"address"}],"outputs":[],"stateMutability":"nonpayable"},{"type":"event","name":"DnsKeyAdded","inputs":[{"name":"who","type":"address","indexed":true,"internalType":"address"},{"name":"key","type":"bytes","indexed":false,"internalType":"bytes"}],"anonymous":false},{"type":"event","name":"DnsKeyRevoked","inputs":[{"name":"who","type":"address","indexed":true,"internalType":"address"},{"name":"key","type":"bytes","indexed":false,"internalType":"bytes"}],"anonymous":false},{"type":"event","name":"ImageIDAdded","inputs":[{"name":"imageID","type":"bytes32","indexed":false,"internalType":"bytes32"}],"anonymous":false},{"type":"event","name":"ImageIDRevoked","inputs":[{"name":"imageID","type":"bytes32","indexed":false,"internalType":"bytes32"}],"anonymous":false},{"type":"event","name":"NotaryKeyAdded","inputs":[{"name":"who","type":"address","indexed":true,"internalType":"address"},{"name":"key","type":"string","indexed":false,"internalType":"string"}],"anonymous":false},{"type":"event","name":"NotaryKeyRevoked","inputs":[{"name":"who","type":"address","indexed":true,"internalType":"address"},{"name":"key","type":"string","indexed":false,"internalType":"string"}],"anonymous":false},{"type":"event","name":"RoleAdminChanged","inputs":[{"name":"role","type":"bytes32","indexed":true,"internalType":"bytes32"},{"name":"previousAdminRole","type":"bytes32","indexed":true,"internalType":"bytes32"},{"name":"newAdminRole","type":"bytes32","indexed":true,"internalType":"bytes32"}],"anonymous":false},{"type":"event","name":"RoleGranted","inputs":[{"name":"role","type":"bytes32","indexed":true,"internalType":"bytes32"},{"name":"account","type":"address","indexed":true,"internalType":"address"},{"name":"sender","type":"address","indexed":true,"internalType":"address"}],"anonymous":false},{"type":"event","name":"RoleRevoked","inputs":[{"name":"role","type":"bytes32","indexed":true,"internalType":"bytes32"},{"name":"account","type":"address","indexed":true,"internalType":"address"},{"name":"sender","type":"address","indexed":true,"internalType":"address"}],"anonymous":false},{"type":"error","name":"AccessControlBadConfirmation","inputs":[]},{"type":"error","name":"AccessControlUnauthorizedAccount","inputs":[{"name":"account","type":"address","internalType":"address"},{"name":"neededRole","type":"bytes32","internalType":"bytes32"}]}],"bytecode":{"object":"0x608060405234801561000f575f5ffd5b50604051611fd0380380611fd083398181016040528101906100319190610342565b6100435f5f1b8361007c60201b60201c565b506100747fb19546dff01e856fb3f010c267a7b1c60363cf8a4664e21cc89c26224620214e8261007c60201b60201c565b505050610380565b5f5f61008e84846100c560201b60201c565b905080156100bb576100b98360015f8781526020019081526020015f206101ba60201b90919060201c565b505b8091505092915050565b5f6100d683836101ed60201b60201c565b6101b05760015f5f8581526020019081526020015f205f015f8473ffffffffffffffffffffffffffffffffffffffff1673ffffffffffffffffffffffffffffffffffffffff1681526020019081526020015f205f6101000a81548160ff02191690831515021790555061014d61025060201b60201c565b73ffffffffffffffffffffffffffffffffffffffff168273ffffffffffffffffffffffffffffffffffffffff16847f2f8788117e7eff1d82e926ec794901d17c78024a50270940304540a733656f0d60405160405180910390a4600190506101b4565b5f90505b92915050565b5f6101e5835f018373ffffffffffffffffffffffffffffffffffffffff165f1b61025760201b60201c565b905092915050565b5f5f5f8481526020019081526020015f205f015f8373ffffffffffffffffffffffffffffffffffffffff1673ffffffffffffffffffffffffffffffffffffffff1681526020019081526020015f205f9054906101000a900460ff16905092915050565b5f33905090565b5f61026883836102c460201b60201c565b6102ba57825f0182908060018154018082558091505060019003905f5260205f20015f9091909190915055825f0180549050836001015f8481526020019081526020015f2081905550600190506102be565b5f90505b92915050565b5f5f836001015f8481526020019081526020015f20541415905092915050565b5f5ffd5b5f73ffffffffffffffffffffffffffffffffffffffff82169050919050565b5f610311826102e8565b9050919050565b61032181610307565b811461032b575f5ffd5b50565b5f8151905061033c81610318565b92915050565b5f5f60408385031215610358576103576102e4565b5b5f6103658582860161032e565b92505060206103768582860161032e565b9150509250929050565b611c438061038d5f395ff3fe608060405234801561000f575f5ffd5b5060043610610135575f3560e01c8063853b5d19116100b6578063c5df91b51161007a578063c5df91b51461036b578063ca0d535814610387578063ca15c873146103a3578063d547741f146103d3578063e58378bb146103ef578063f2fde38b1461040d57610135565b8063853b5d19146102b55780639010d07c146102d157806391d1485414610301578063a217fddf14610331578063ada8f9191461034f57610135565b80632f2ff15d116100fd5780632f2ff15d1461021557806336568abe14610231578063755e936f1461024d57806381e4c9a31461026957806384cf84e11461029957610135565b806301ffc9a7146101395780631af6c43114610169578063248a9ca3146101995780632505a3bd146101c95780632ad82eea146101f9575b5f5ffd5b610153600480360381019061014e91906113a4565b610429565b60405161016091906113e9565b60405180910390f35b610183600480360381019061017e9190611435565b6104a2565b60405161019091906113e9565b60405180910390f35b6101b360048036038101906101ae9190611435565b6104c8565b6040516101c0919061146f565b60405180910390f35b6101e360048036038101906101de91906115c4565b6104e4565b6040516101f091906113e9565b60405180910390f35b610213600480360381019061020e91906115c4565b610511565b005b61022f600480360381019061022a9190611665565b610620565b005b61024b60048036038101906102469190611665565b610642565b005b61026760048036038101906102629190611741565b6106bd565b005b610283600480360381019061027e9190611741565b6107ca565b60405161029091906113e9565b60405180910390f35b6102b360048036038101906102ae9190611435565b6107f7565b005b6102cf60048036038101906102ca9190611741565b6108ce565b005b6102eb60048036038101906102e691906117bb565b6109dd565b6040516102f89190611808565b60405180910390f35b61031b60048036038101906103169190611665565b610a09565b60405161032891906113e9565b60405180910390f35b610339610a6c565b604051610346919061146f565b60405180910390f35b61036960048036038101906103649190611821565b610a72565b005b61038560048036038101906103809190611435565b610a8d565b005b6103a1600480360381019061039c91906115c4565b610b62565b005b6103bd60048036038101906103b89190611435565b610c6f565b6040516103ca919061185b565b60405180910390f35b6103ed60048036038101906103e89190611665565b610c90565b005b6103f7610cb2565b604051610404919061146f565b60405180910390f35b61042760048036038101906104229190611821565b610cd6565b005b5f7f5a05180f000000000000000000000000000000000000000000000000000000007bffffffffffffffffffffffffffffffffffffffffffffffffffffffff1916827bffffffffffffffffffffffffffffffffffffffffffffffffffffffff1916148061049b575061049a82610d5b565b5b9050919050565b5f60035f8381526020019081526020015f205f9054906101000a900460ff169050919050565b5f5f5f8381526020019081526020015f20600101549050919050565b5f60045f838051906020012081526020019081526020015f205f9054906101000a900460ff169050919050565b7fb19546dff01e856fb3f010c267a7b1c60363cf8a4664e21cc89c26224620214e61053b81610dd4565b5f8280519060200120905060045f8281526020019081526020015f205f9054906101000a900460ff16156105a4576040517f08c379a000000000000000000000000000000000000000000000000000000000815260040161059b906118ce565b60405180910390fd5b600160045f8381526020019081526020015f205f6101000a81548160ff0219169083151502179055503373ffffffffffffffffffffffffffffffffffffffff167fcbfa55581c230aeb174d969838d927cdd297755dfb967a33134312f1377ee71d84604051610613919061193c565b60405180910390a2505050565b610629826104c8565b61063281610dd4565b61063c8383610de8565b50505050565b61064a610e2b565b73ffffffffffffffffffffffffffffffffffffffff168173ffffffffffffffffffffffffffffffffffffffff16146106ae576040517f6697b23200000000000000000000000000000000000000000000000000000000815260040160405180910390fd5b6106b88282610e32565b505050565b7fb19546dff01e856fb3f010c267a7b1c60363cf8a4664e21cc89c26224620214e6106e781610dd4565b5f8280519060200120905060025f8281526020019081526020015f205f9054906101000a900460ff1661074f576040517f08c379a0000000000000000000000000000000000000000000000000000000008152600401610746906119a6565b60405180910390fd5b5f60025f8381526020019081526020015f205f6101000a81548160ff0219169083151502179055503373ffffffffffffffffffffffffffffffffffffffff167f66e43f8252a3257fe010a4fd6ae50f57624762cc64a6eceadb04b18cfdefac7d846040516107bd9190611a16565b60405180910390a2505050565b5f60025f838051906020012081526020019081526020015f205f9054906101000a900460ff169050919050565b7fb19546dff01e856fb3f010c267a7b1c60363cf8a4664e21cc89c26224620214e61082181610dd4565b61082a826104a2565b1561086a576040517f08c379a000000000000000000000000000000000000000000000000000000000815260040161086190611a80565b60405180910390fd5b600160035f8481526020019081526020015f205f6101000a81548160ff0219169083151502179055507f010120d82c0c66b257c0ea628d405b1d3c2d37bb8dd9141f6c5c12cb0375c572826040516108c2919061146f565b60405180910390a15050565b7fb19546dff01e856fb3f010c267a7b1c60363cf8a4664e21cc89c26224620214e6108f881610dd4565b5f8280519060200120905060025f8281526020019081526020015f205f9054906101000a900460ff1615610961576040517f08c379a0000000000000000000000000000000000000000000000000000000008152600401610958906118ce565b60405180910390fd5b600160025f8381526020019081526020015f205f6101000a81548160ff0219169083151502179055503373ffffffffffffffffffffffffffffffffffffffff167f0a249d4766726d36cb6d6ac22cf998dc9fc02bb4ff9fda73ec1e3061c8a1db09846040516109d09190611a16565b60405180910390a2505050565b5f610a018260015f8681526020019081526020015f20610e7590919063ffffffff16565b905092915050565b5f5f5f8481526020019081526020015f205f015f8373ffffffffffffffffffffffffffffffffffffffff1673ffffffffffffffffffffffffffffffffffffffff1681526020019081526020015f205f9054906101000a900460ff16905092915050565b5f5f1b81565b610a7e5f5f1b82610620565b610a8a5f5f1b33610642565b50565b7fb19546dff01e856fb3f010c267a7b1c60363cf8a4664e21cc89c26224620214e610ab781610dd4565b610ac0826104a2565b610aff576040517f08c379a0000000000000000000000000000000000000000000000000000000008152600401610af690611b0e565b60405180910390fd5b5f60035f8481526020019081526020015f205f6101000a81548160ff0219169083151502179055507f4072861add20da436ef0a8274b90d102aea17b603f972cc8196d51f1a5d5617982604051610b56919061146f565b60405180910390a15050565b7fb19546dff01e856fb3f010c267a7b1c60363cf8a4664e21cc89c26224620214e610b8c81610dd4565b5f8280519060200120905060045f8281526020019081526020015f205f9054906101000a900460ff16610bf4576040517f08c379a0000000000000000000000000000000000000000000000000000000008152600401610beb906119a6565b60405180910390fd5b5f60045f8381526020019081526020015f205f6101000a81548160ff0219169083151502179055503373ffffffffffffffffffffffffffffffffffffffff167f69c40cdda8ad6e074bf320a4a76804a6652eb5231bda91b690dcb98010b2707984604051610c62919061193c565b60405180910390a2505050565b5f610c8960015f8481526020019081526020015f20610e8c565b9050919050565b610c99826104c8565b610ca281610dd4565b610cac8383610e32565b50505050565b7fb19546dff01e856fb3f010c267a7b1c60363cf8a4664e21cc89c26224620214e81565b5f610d017fb19546dff01e856fb3f010c267a7b1c60363cf8a4664e21cc89c26224620214e5f6109dd565b9050610d2d7fb19546dff01e856fb3f010c267a7b1c60363cf8a4664e21cc89c26224620214e82610c90565b610d577fb19546dff01e856fb3f010c267a7b1c60363cf8a4664e21cc89c26224620214e83610620565b5050565b5f7f7965db0b000000000000000000000000000000000000000000000000000000007bffffffffffffffffffffffffffffffffffffffffffffffffffffffff1916827bffffffffffffffffffffffffffffffffffffffffffffffffffffffff19161480610dcd5750610dcc82610e9f565b5b9050919050565b610de581610de0610e2b565b610f08565b50565b5f5f610df48484610f59565b90508015610e2157610e1f8360015f8781526020019081526020015f2061104290919063ffffffff16565b505b8091505092915050565b5f33905090565b5f5f610e3e848461106f565b90508015610e6b57610e698360015f8781526020019081526020015f2061115890919063ffffffff16565b505b8091505092915050565b5f610e82835f0183611185565b5f1c905092915050565b5f610e98825f016111ac565b9050919050565b5f7f01ffc9a7000000000000000000000000000000000000000000000000000000007bffffffffffffffffffffffffffffffffffffffffffffffffffffffff1916827bffffffffffffffffffffffffffffffffffffffffffffffffffffffff1916149050919050565b610f128282610a09565b610f555780826040517fe2517d3f000000000000000000000000000000000000000000000000000000008152600401610f4c929190611b2c565b60405180910390fd5b5050565b5f610f648383610a09565b6110385760015f5f8581526020019081526020015f205f015f8473ffffffffffffffffffffffffffffffffffffffff1673ffffffffffffffffffffffffffffffffffffffff1681526020019081526020015f205f6101000a81548160ff021916908315150217905550610fd5610e2b565b73ffffffffffffffffffffffffffffffffffffffff168273ffffffffffffffffffffffffffffffffffffffff16847f2f8788117e7eff1d82e926ec794901d17c78024a50270940304540a733656f0d60405160405180910390a46001905061103c565b5f90505b92915050565b5f611067835f018373ffffffffffffffffffffffffffffffffffffffff165f1b6111bb565b905092915050565b5f61107a8383610a09565b1561114e575f5f5f8581526020019081526020015f205f015f8473ffffffffffffffffffffffffffffffffffffffff1673ffffffffffffffffffffffffffffffffffffffff1681526020019081526020015f205f6101000a81548160ff0219169083151502179055506110eb610e2b565b73ffffffffffffffffffffffffffffffffffffffff168273ffffffffffffffffffffffffffffffffffffffff16847ff6391f5c32d9c69d2a47ea670b442974b53935d1edc7fd64eb21e047a839171b60405160405180910390a460019050611152565b5f90505b92915050565b5f61117d835f018373ffffffffffffffffffffffffffffffffffffffff165f1b611222565b905092915050565b5f825f01828154811061119b5761119a611b53565b5b905f5260205f200154905092915050565b5f815f01805490509050919050565b5f6111c6838361131e565b61121857825f0182908060018154018082558091505060019003905f5260205f20015f9091909190915055825f0180549050836001015f8481526020019081526020015f20819055506001905061121c565b5f90505b92915050565b5f5f836001015f8481526020019081526020015f205490505f8114611313575f60018261124f9190611bad565b90505f6001865f01805490506112659190611bad565b90508082146112cb575f865f01828154811061128457611283611b53565b5b905f5260205f200154905080875f0184815481106112a5576112a4611b53565b5b905f5260205f20018190555083876001015f8381526020019081526020015f2081905550505b855f018054806112de576112dd611be0565b5b600190038181905f5260205f20015f90559055856001015f8681526020019081526020015f205f905560019350505050611318565b5f9150505b92915050565b5f5f836001015f8481526020019081526020015f20541415905092915050565b5f604051905090565b5f5ffd5b5f5ffd5b5f7fffffffff0000000000000000000000000000000000000000000000000000000082169050919050565b6113838161134f565b811461138d575f5ffd5b50565b5f8135905061139e8161137a565b92915050565b5f602082840312156113b9576113b8611347565b5b5f6113c684828501611390565b91505092915050565b5f8115159050919050565b6113e3816113cf565b82525050565b5f6020820190506113fc5f8301846113da565b92915050565b5f819050919050565b61141481611402565b811461141e575f5ffd5b50565b5f8135905061142f8161140b565b92915050565b5f6020828403121561144a57611449611347565b5b5f61145784828501611421565b91505092915050565b61146981611402565b82525050565b5f6020820190506114825f830184611460565b92915050565b5f5ffd5b5f5ffd5b5f601f19601f8301169050919050565b7f4e487b71000000000000000000000000000000000000000000000000000000005f52604160045260245ffd5b6114d682611490565b810181811067ffffffffffffffff821117156114f5576114f46114a0565b5b80604052505050565b5f61150761133e565b905061151382826114cd565b919050565b5f67ffffffffffffffff821115611532576115316114a0565b5b61153b82611490565b9050602081019050919050565b828183375f83830152505050565b5f61156861156384611518565b6114fe565b9050828152602081018484840111156115845761158361148c565b5b61158f848285611548565b509392505050565b5f82601f8301126115ab576115aa611488565b5b81356115bb848260208601611556565b91505092915050565b5f602082840312156115d9576115d8611347565b5b5f82013567ffffffffffffffff8111156115f6576115f561134b565b5b61160284828501611597565b91505092915050565b5f73ffffffffffffffffffffffffffffffffffffffff82169050919050565b5f6116348261160b565b9050919050565b6116448161162a565b811461164e575f5ffd5b50565b5f8135905061165f8161163b565b92915050565b5f5f6040838503121561167b5761167a611347565b5b5f61168885828601611421565b925050602061169985828601611651565b9150509250929050565b5f67ffffffffffffffff8211156116bd576116bc6114a0565b5b6116c682611490565b9050602081019050919050565b5f6116e56116e0846116a3565b6114fe565b9050828152602081018484840111156117015761170061148c565b5b61170c848285611548565b509392505050565b5f82601f83011261172857611727611488565b5b81356117388482602086016116d3565b91505092915050565b5f6020828403121561175657611755611347565b5b5f82013567ffffffffffffffff8111156117735761177261134b565b5b61177f84828501611714565b91505092915050565b5f819050919050565b61179a81611788565b81146117a4575f5ffd5b50565b5f813590506117b581611791565b92915050565b5f5f604083850312156117d1576117d0611347565b5b5f6117de85828601611421565b92505060206117ef858286016117a7565b9150509250929050565b6118028161162a565b82525050565b5f60208201905061181b5f8301846117f9565b92915050565b5f6020828403121561183657611835611347565b5b5f61184384828501611651565b91505092915050565b61185581611788565b82525050565b5f60208201905061186e5f83018461184c565b92915050565b5f82825260208201905092915050565b7f4b657920697320616c72656164792076616c69640000000000000000000000005f82015250565b5f6118b8601483611874565b91506118c382611884565b602082019050919050565b5f6020820190508181035f8301526118e5816118ac565b9050919050565b5f81519050919050565b8281835e5f83830152505050565b5f61190e826118ec565b6119188185611874565b93506119288185602086016118f6565b61193181611490565b840191505092915050565b5f6020820190508181035f8301526119548184611904565b905092915050565b7f43616e6e6f74207265766f6b6520696e76616c6964206b6579000000000000005f82015250565b5f611990601983611874565b915061199b8261195c565b602082019050919050565b5f6020820190508181035f8301526119bd81611984565b9050919050565b5f81519050919050565b5f82825260208201905092915050565b5f6119e8826119c4565b6119f281856119ce565b9350611a028185602086016118f6565b611a0b81611490565b840191505092915050565b5f6020820190508181035f830152611a2e81846119de565b905092915050565b7f496d616765494420697320616c726561647920737570706f72746564000000005f82015250565b5f611a6a601c83611874565b9150611a7582611a36565b602082019050919050565b5f6020820190508181035f830152611a9781611a5e565b9050919050565b7f43616e6e6f74207265766f6b6520756e737570706f7274656420496d616765495f8201527f4400000000000000000000000000000000000000000000000000000000000000602082015250565b5f611af8602183611874565b9150611b0382611a9e565b604082019050919050565b5f6020820190508181035f830152611b2581611aec565b9050919050565b5f604082019050611b3f5f8301856117f9565b611b4c6020830184611460565b9392505050565b7f4e487b71000000000000000000000000000000000000000000000000000000005f52603260045260245ffd5b7f4e487b71000000000000000000000000000000000000000000000000000000005f52601160045260245ffd5b5f611bb782611788565b9150611bc283611788565b9250828203905081811115611bda57611bd9611b80565b5b92915050565b7f4e487b71000000000000000000000000000000000000000000000000000000005f52603160045260245ffdfea2646970667358221220e0c580d4dd40dc8c403a5e1a037b5aac1e83dc1b0e0a638005edc21f4fe48df064736f6c634300081e0033","linkReferences":{}},"methodIdentifiers":{"DEFAULT_ADMIN_ROLE()":"a217fddf","OWNER_ROLE()":"e58378bb","addDnsKey(bytes)":"853b5d19","addImageIdSupport(bytes32)":"84cf84e1","addNotaryKey(string)":"2ad82eea","getRoleAdmin(bytes32)":"248a9ca3","getRoleMember(bytes32,uint256)":"9010d07c","getRoleMemberCount(bytes32)":"ca15c873","grantRole(bytes32,address)":"2f2ff15d","hasRole(bytes32,address)":"91d14854","isDnsKeyValid(bytes)":"81e4c9a3","isImageSupported(bytes32)":"1af6c431","isNotaryKeyValid(string)":"2505a3bd","renounceRole(bytes32,address)":"36568abe","revokeDnsKey(bytes)":"755e936f","revokeImageIdSupport(bytes32)":"c5df91b5","revokeNotaryKey(string)":"ca0d5358","revokeRole(bytes32,address)":"d547741f","supportsInterface(bytes4)":"01ffc9a7","transferAdminRole(address)":"ada8f919","transferOwnership(address)":"f2fde38b"},"id":58}