{"abi":[{"type":"constructor","inputs":[{"name":"_repository","type":"address","internalType":"contract IImageIdRepository"}],"stateMutability":"nonpayable"},{"type":"function","name":"IMAGE_ID_REPOSITORY","inputs":[],"outputs":[{"name":"","type":"address","internalType":"contract IImageIdRepository"}],"stateMutability":"view"},{"type":"function","name":"PROOF_MODE","inputs":[],"outputs":[{"name":"","type":"uint8","internalType":"enum ProofMode"}],"stateMutability":"view"},{"type":"function","name":"VERIFIER","inputs":[],"outputs":[{"name":"","type":"address","internalType":"contract IRiscZeroVerifier"}],"stateMutability":"view"},{"type":"function","name":"imageIdRepository","inputs":[],"outputs":[{"name":"","type":"address","internalType":"contract IImageIdRepository"}],"stateMutability":"view"},{"type":"function","name":"verify","inputs":[{"name":"proof","type":"tuple","internalType":"struct Proof","components":[{"name":"seal","type":"tuple","internalType":"struct Seal","components":[{"name":"verifierSelector","type":"bytes4","internalType":"bytes4"},{"name":"seal","type":"bytes32[8]","internalType":"bytes32[8]"},{"name":"mode","type":"uint8","internalType":"enum ProofMode"}]},{"name":"callGuestId","type":"bytes32","internalType":"bytes32"},{"name":"length","type":"uint256","internalType":"uint256"},{"name":"callAssumptions","type":"tuple","internalType":"struct CallAssumptions","components":[{"name":"proverContractAddress","type":"address","internalType":"address"},{"name":"functionSelector","type":"bytes4","internalType":"bytes4"},{"name":"settleChainId","type":"uint256","internalType":"uint256"},{"name":"settleBlockNumber","type":"uint256","internalType":"uint256"},{"name":"settleBlockHash","type":"bytes32","internalType":"bytes32"}]}]},{"name":"journalHash","type":"bytes32","internalType":"bytes32"},{"name":"expectedProver","type":"address","internalType":"address"},{"name":"expectedSelector","type":"bytes4","internalType":"bytes4"}],"outputs":[],"stateMutability":"view"},{"type":"error","name":"InvalidChainId","inputs":[]}],"bytecode":{"object":"0x60e060405234801561000f575f5ffd5b506040516126ac3803806126ac8339818101604052810190610031919061022d565b808073ffffffffffffffffffffffffffffffffffffffff1660c08173ffffffffffffffffffffffffffffffffffffffff16815250505061007561014960201b60201c565b156100ac576040517f7a47c9a200000000000000000000000000000000000000000000000000000000815260040160405180910390fd5b63deafbeef60e01b6040516100c0906101b1565b6100ca9190610292565b604051809103905ff0801580156100e3573d5f5f3e3d5ffd5b5073ffffffffffffffffffffffffffffffffffffffff1660a08173ffffffffffffffffffffffffffffffffffffffff168152505060018081111561012a576101296102ab565b5b608081600181111561013f5761013e6102ab565b5b81525050506102d8565b5f60014614806101595750600a46145b806101645750608946145b80610170575061014446145b8061017c57506101e046145b80610188575061210546145b80610194575061a4b146145b806101a0575061a4ba46145b806101ac575061e70846145b905090565b610ffb806116b183390190565b5f5ffd5b5f73ffffffffffffffffffffffffffffffffffffffff82169050919050565b5f6101eb826101c2565b9050919050565b5f6101fc826101e1565b9050919050565b61020c816101f2565b8114610216575f5ffd5b50565b5f8151905061022781610203565b92915050565b5f60208284031215610242576102416101be565b5b5f61024f84828501610219565b91505092915050565b5f7fffffffff0000000000000000000000000000000000000000000000000000000082169050919050565b61028c81610258565b82525050565b5f6020820190506102a55f830184610283565b92915050565b7f4e487b71000000000000000000000000000000000000000000000000000000005f52602160045260245ffd5b60805160a05160c05161139461031d5f395f818161011401528181610240015261053401525f818160ef015261019201525f818161013a015261026401526113945ff3fe608060405234801561000f575f5ffd5b5060043610610055575f3560e01c806308c84e70146100595780633fd66f22146100775780639a44ea8414610095578063c4fa74e5146100b3578063f4cbae94146100cf575b5f5ffd5b6100616100ed565b60405161006e9190610747565b60405180910390f35b61007f610111565b60405161008c9190610780565b60405180910390f35b61009d610138565b6040516100aa919061080c565b60405180910390f35b6100cd60048036038101906100c89190610918565b61015c565b005b6100d761023e565b6040516100e49190610780565b60405180910390f35b7f000000000000000000000000000000000000000000000000000000000000000081565b5f7f0000000000000000000000000000000000000000000000000000000000000000905090565b7f000000000000000000000000000000000000000000000000000000000000000081565b610175848036038101906101709190610c7d565b610262565b610190848036038101906101899190610c7d565b83836102f6565b7f000000000000000000000000000000000000000000000000000000000000000073ffffffffffffffffffffffffffffffffffffffff1663ab750e756101e7865f018036038101906101e29190610ca9565b610612565b866101400135866040518463ffffffff1660e01b815260040161020c93929190610d44565b5f6040518083038186803b158015610222575f5ffd5b505afa158015610234573d5f5f3e3d5ffd5b5050505050505050565b7f000000000000000000000000000000000000000000000000000000000000000081565b7f0000000000000000000000000000000000000000000000000000000000000000600181111561029557610294610799565b5b6102a1825f01516106c0565b60018111156102b3576102b2610799565b5b146102f3576040517f08c379a00000000000000000000000000000000000000000000000000000000081526004016102ea90610dda565b60405180910390fd5b50565b8173ffffffffffffffffffffffffffffffffffffffff1683606001515f015173ffffffffffffffffffffffffffffffffffffffff161461036b576040517f08c379a000000000000000000000000000000000000000000000000000000000815260040161036290610e42565b60405180910390fd5b807bffffffffffffffffffffffffffffffffffffffffffffffffffffffff19168360600151602001517bffffffffffffffffffffffffffffffffffffffffffffffffffffffff1916146103f3576040517f08c379a00000000000000000000000000000000000000000000000000000000081526004016103ea90610eaa565b60405180910390fd5b468360600151604001511461043d576040517f08c379a000000000000000000000000000000000000000000000000000000000815260040161043490610f12565b60405180910390fd5b4383606001516060015110610487576040517f08c379a000000000000000000000000000000000000000000000000000000000815260040161047e90610fa0565b60405180910390fd5b4361010084606001516060015161049e9190610feb565b10156104df576040517f08c379a00000000000000000000000000000000000000000000000000000000081526004016104d69061108e565b60405180910390fd5b8260600151606001514083606001516080015114610532576040517f08c379a0000000000000000000000000000000000000000000000000000000008152600401610529906110f6565b60405180910390fd5b7f000000000000000000000000000000000000000000000000000000000000000073ffffffffffffffffffffffffffffffffffffffff16631af6c43184602001516040518263ffffffff1660e01b815260040161058f9190611114565b602060405180830381865afa1580156105aa573d5f5f3e3d5ffd5b505050506040513d601f19601f820116820180604052508101906105ce9190611162565b61060d576040517f08c379a0000000000000000000000000000000000000000000000000000000008152600401610604906111d7565b60405180910390fd5b505050565b606060018081111561062757610626610799565b5b8260400151600181111561063e5761063d610799565b5b0361068f575f82602001515f6008811061065b5761065a6111f5565b5b60200201519050825f015181604051602001610678929190611262565b6040516020818303038152906040529150506106bb565b815f015182602001516040516020016106a9929190611332565b60405160208183030381529060405290505b919050565b5f81604001519050919050565b5f73ffffffffffffffffffffffffffffffffffffffff82169050919050565b5f819050919050565b5f61070f61070a610705846106cd565b6106ec565b6106cd565b9050919050565b5f610720826106f5565b9050919050565b5f61073182610716565b9050919050565b61074181610727565b82525050565b5f60208201905061075a5f830184610738565b92915050565b5f61076a82610716565b9050919050565b61077a81610760565b82525050565b5f6020820190506107935f830184610771565b92915050565b7f4e487b71000000000000000000000000000000000000000000000000000000005f52602160045260245ffd5b600281106107d7576107d6610799565b5b50565b5f8190506107e7826107c6565b919050565b5f6107f6826107da565b9050919050565b610806816107ec565b82525050565b5f60208201905061081f5f8301846107fd565b92915050565b5f604051905090565b5f5ffd5b5f5ffd5b5f610220828403121561084c5761084b610832565b5b81905092915050565b5f819050919050565b61086781610855565b8114610871575f5ffd5b50565b5f813590506108828161085e565b92915050565b5f610892826106cd565b9050919050565b6108a281610888565b81146108ac575f5ffd5b50565b5f813590506108bd81610899565b92915050565b5f7fffffffff0000000000000000000000000000000000000000000000000000000082169050919050565b6108f7816108c3565b8114610901575f5ffd5b50565b5f81359050610912816108ee565b92915050565b5f5f5f5f61028085870312156109315761093061082e565b5b5f61093e87828801610836565b94505061022061095087828801610874565b935050610240610962878288016108af565b92505061026061097487828801610904565b91505092959194509250565b5f5ffd5b5f601f19601f8301169050919050565b7f4e487b71000000000000000000000000000000000000000000000000000000005f52604160045260245ffd5b6109ca82610984565b810181811067ffffffffffffffff821117156109e9576109e8610994565b5b80604052505050565b5f6109fb610825565b9050610a0782826109c1565b919050565b5f5ffd5b5f67ffffffffffffffff821115610a2a57610a29610994565b5b602082029050919050565b5f5ffd5b5f610a4b610a4684610a10565b6109f2565b90508060208402830185811115610a6557610a64610a35565b5b835b81811015610a8e5780610a7a8882610874565b845260208401935050602081019050610a67565b5050509392505050565b5f82601f830112610aac57610aab610a0c565b5b6008610ab9848285610a39565b91505092915050565b60028110610ace575f5ffd5b50565b5f81359050610adf81610ac2565b92915050565b5f6101408284031215610afb57610afa610980565b5b610b0560606109f2565b90505f610b1484828501610904565b5f830152506020610b2784828501610a98565b602083015250610120610b3c84828501610ad1565b60408301525092915050565b5f819050919050565b610b5a81610b48565b8114610b64575f5ffd5b50565b5f81359050610b7581610b51565b92915050565b5f60a08284031215610b9057610b8f610980565b5b610b9a60a06109f2565b90505f610ba9848285016108af565b5f830152506020610bbc84828501610904565b6020830152506040610bd084828501610b67565b6040830152506060610be484828501610b67565b6060830152506080610bf884828501610874565b60808301525092915050565b5f6102208284031215610c1a57610c19610980565b5b610c2460806109f2565b90505f610c3384828501610ae5565b5f83015250610140610c4784828501610874565b602083015250610160610c5c84828501610b67565b604083015250610180610c7184828501610b7b565b60608301525092915050565b5f6102208284031215610c9357610c9261082e565b5b5f610ca084828501610c04565b91505092915050565b5f6101408284031215610cbf57610cbe61082e565b5b5f610ccc84828501610ae5565b91505092915050565b5f81519050919050565b5f82825260208201905092915050565b8281835e5f83830152505050565b5f610d0782610cd5565b610d118185610cdf565b9350610d21818560208601610cef565b610d2a81610984565b840191505092915050565b610d3e81610855565b82525050565b5f6060820190508181035f830152610d5c8186610cfd565b9050610d6b6020830185610d35565b610d786040830184610d35565b949350505050565b5f82825260208201905092915050565b7f496e76616c69642070726f6f66206d6f646500000000000000000000000000005f82015250565b5f610dc4601283610d80565b9150610dcf82610d90565b602082019050919050565b5f6020820190508181035f830152610df181610db8565b9050919050565b7f496e76616c69642070726f7665720000000000000000000000000000000000005f82015250565b5f610e2c600e83610d80565b9150610e3782610df8565b602082019050919050565b5f6020820190508181035f830152610e5981610e20565b9050919050565b7f496e76616c69642073656c6563746f72000000000000000000000000000000005f82015250565b5f610e94601083610d80565b9150610e9f82610e60565b602082019050919050565b5f6020820190508181035f830152610ec181610e88565b9050919050565b7f496e76616c696420636861696e206964000000000000000000000000000000005f82015250565b5f610efc601083610d80565b9150610f0782610ec8565b602082019050919050565b5f6020820190508181035f830152610f2981610ef0565b9050919050565b7f496e76616c696420626c6f636b206e756d6265723a20626c6f636b2066726f6d5f8201527f2066757475726500000000000000000000000000000000000000000000000000602082015250565b5f610f8a602783610d80565b9150610f9582610f30565b604082019050919050565b5f6020820190508181035f830152610fb781610f7e565b9050919050565b7f4e487b71000000000000000000000000000000000000000000000000000000005f52601160045260245ffd5b5f610ff582610b48565b915061100083610b48565b925082820190508082111561101857611017610fbe565b5b92915050565b7f496e76616c696420626c6f636b206e756d6265723a20626c6f636b20746f6f205f8201527f6f6c640000000000000000000000000000000000000000000000000000000000602082015250565b5f611078602383610d80565b91506110838261101e565b604082019050919050565b5f6020820190508181035f8301526110a58161106c565b9050919050565b7f496e76616c696420626c6f636b206861736800000000000000000000000000005f82015250565b5f6110e0601283610d80565b91506110eb826110ac565b602082019050919050565b5f6020820190508181035f83015261110d816110d4565b9050919050565b5f6020820190506111275f830184610d35565b92915050565b5f8115159050919050565b6111418161112d565b811461114b575f5ffd5b50565b5f8151905061115c81611138565b92915050565b5f602082840312156111775761117661082e565b5b5f6111848482850161114e565b91505092915050565b7f556e737570706f727465642043616c6c477565737449640000000000000000005f82015250565b5f6111c1601783610d80565b91506111cc8261118d565b602082019050919050565b5f6020820190508181035f8301526111ee816111b5565b9050919050565b7f4e487b71000000000000000000000000000000000000000000000000000000005f52603260045260245ffd5b5f819050919050565b61123c611237826108c3565b611222565b82525050565b5f819050919050565b61125c61125782610855565b611242565b82525050565b5f61126d828561122b565b60048201915061127d828461124b565b6020820191508190509392505050565b5f60089050919050565b5f81905092915050565b5f819050919050565b6112b381610855565b82525050565b5f6112c483836112aa565b60208301905092915050565b5f602082019050919050565b6112e58161128d565b6112ef8184611297565b92506112fa826112a1565b805f5b8381101561132a57815161131187826112b9565b965061131c836112d0565b9250506001810190506112fd565b505050505050565b5f61133d828561122b565b60048201915061134d82846112dc565b61010082019150819050939250505056fea2646970667358221220daa8ece0759497fcdd4dd0c86ab75afbeff8790695820bfd0b37162fd9ca9e1964736f6c634300081e003360a060405234801561000f575f5ffd5b50604051610ffb380380610ffb833981810160405281019061003191906100d6565b807bffffffffffffffffffffffffffffffffffffffffffffffffffffffff19166080817bffffffffffffffffffffffffffffffffffffffffffffffffffffffff19168152505050610101565b5f5ffd5b5f7fffffffff0000000000000000000000000000000000000000000000000000000082169050919050565b6100b581610081565b81146100bf575f5ffd5b50565b5f815190506100d0816100ac565b92915050565b5f602082840312156100eb576100ea61007d565b5b5f6100f8848285016100c2565b91505092915050565b608051610ecd61012e5f395f8181610111015281816101670152818161024201526102a50152610ecd5ff3fe608060405234801561000f575f5ffd5b5060043610610055575f3560e01c8063053c238d146100595780631599ead5146100775780633a115bb11461009357806366cf0e4b146100c3578063ab750e75146100f3575b5f5ffd5b61006161010f565b60405161006e91906106d2565b60405180910390f35b610091600480360381019061008c9190610715565b610133565b005b6100ad60048036038101906100a8919061078f565b610152565b6040516100ba9190610873565b60405180910390f35b6100dd60048036038101906100d89190610893565b6101b7565b6040516100ea9190610873565b60405180910390f35b61010d60048036038101906101089190610932565b6101e1565b005b7f000000000000000000000000000000000000000000000000000000000000000081565b61014f81805f019061014591906109af565b8360200135610203565b50565b61015a610621565b60405180604001604052807f000000000000000000000000000000000000000000000000000000000000000084604051602001610198929190610a51565b6040516020818303038152906040528152602001838152509050919050565b6101bf610621565b6101d96101d46101cf858561038d565b61042f565b610152565b905092915050565b6101fd84846101f86101f3868661038d565b61042f565b610203565b50505050565b82825f9060049261021693929190610a84565b906102219190610ad4565b7bffffffffffffffffffffffffffffffffffffffffffffffffffffffff19167f00000000000000000000000000000000000000000000000000000000000000007bffffffffffffffffffffffffffffffffffffffffffffffffffffffff1916146103015782825f9060049261029893929190610a84565b906102a39190610ad4565b7f00000000000000000000000000000000000000000000000000000000000000006040517fb8b38d4c0000000000000000000000000000000000000000000000000000000081526004016102f8929190610b32565b60405180910390fd5b806040516020016103129190610b59565b604051602081830303815290604052805190602001208383600490809261033b93929190610a84565b604051610349929190610baf565b604051809103902014610388576040517f439cc0cd00000000000000000000000000000000000000000000000000000000815260040160405180910390fd5b505050565b61039561063a565b6040518060a001604052808481526020017fa3acc27117418996340b84e5a90f3ef4c49d22c79e44aad822ec9c313e1eb8e25f1b815260200160405180604001604052805f60028111156103ec576103eb610bc7565b5b81526020015f60ff1681525081526020015f5f1b815260200161042460405180604001604052808681526020015f5f1b81525061054c565b815250905092915050565b5f60028060405161043f90610c3e565b602060405180830381855afa15801561045a573d5f5f3e3d5ffd5b5050506040513d601f19601f8201168201806040525081019061047d9190610c66565b8360600151845f015185602001518660800151601888604001515f015160028111156104ac576104ab610bc7565b5b63ffffffff16901b601889604001516020015160ff1663ffffffff16901b6008600461ffff16901b6040516020016104eb989796959493929190610d15565b6040516020818303038152906040526040516105079190610dd6565b602060405180830381855afa158015610522573d5f5f3e3d5ffd5b5050506040513d601f19601f820116820180604052508101906105459190610c66565b9050919050565b5f60028060405161055c90610e36565b602060405180830381855afa158015610577573d5f5f3e3d5ffd5b5050506040513d601f19601f8201168201806040525081019061059a9190610c66565b835f015184602001516008600261ffff16901b6040516020016105c09493929190610e4a565b6040516020818303038152906040526040516105dc9190610dd6565b602060405180830381855afa1580156105f7573d5f5f3e3d5ffd5b5050506040513d601f19601f8201168201806040525081019061061a9190610c66565b9050919050565b6040518060400160405280606081526020015f81525090565b6040518060a001604052805f81526020015f815260200161065961066b565b81526020015f81526020015f81525090565b60405180604001604052805f600281111561068957610688610bc7565b5b81526020015f60ff1681525090565b5f7fffffffff0000000000000000000000000000000000000000000000000000000082169050919050565b6106cc81610698565b82525050565b5f6020820190506106e55f8301846106c3565b92915050565b5f5ffd5b5f5ffd5b5f5ffd5b5f6040828403121561070c5761070b6106f3565b5b81905092915050565b5f6020828403121561072a576107296106eb565b5b5f82013567ffffffffffffffff811115610747576107466106ef565b5b610753848285016106f7565b91505092915050565b5f819050919050565b61076e8161075c565b8114610778575f5ffd5b50565b5f8135905061078981610765565b92915050565b5f602082840312156107a4576107a36106eb565b5b5f6107b18482850161077b565b91505092915050565b5f81519050919050565b5f82825260208201905092915050565b8281835e5f83830152505050565b5f601f19601f8301169050919050565b5f6107fc826107ba565b61080681856107c4565b93506108168185602086016107d4565b61081f816107e2565b840191505092915050565b6108338161075c565b82525050565b5f604083015f8301518482035f86015261085382826107f2565b9150506020830151610868602086018261082a565b508091505092915050565b5f6020820190508181035f83015261088b8184610839565b905092915050565b5f5f604083850312156108a9576108a86106eb565b5b5f6108b68582860161077b565b92505060206108c78582860161077b565b9150509250929050565b5f5ffd5b5f5ffd5b5f5ffd5b5f5f83601f8401126108f2576108f16108d1565b5b8235905067ffffffffffffffff81111561090f5761090e6108d5565b5b60208301915083600182028301111561092b5761092a6108d9565b5b9250929050565b5f5f5f5f6060858703121561094a576109496106eb565b5b5f85013567ffffffffffffffff811115610967576109666106ef565b5b610973878288016108dd565b945094505060206109868782880161077b565b92505060406109978782880161077b565b91505092959194509250565b5f5ffd5b5f5ffd5b5f5ffd5b5f5f833560016020038436030381126109cb576109ca6109a3565b5b80840192508235915067ffffffffffffffff8211156109ed576109ec6109a7565b5b602083019250600182023603831315610a0957610a086109ab565b5b509250929050565b5f819050919050565b610a2b610a2682610698565b610a11565b82525050565b5f819050919050565b610a4b610a468261075c565b610a31565b82525050565b5f610a5c8285610a1a565b600482019150610a6c8284610a3a565b6020820191508190509392505050565b5f5ffd5b5f5ffd5b5f5f85851115610a9757610a96610a7c565b5b83861115610aa857610aa7610a80565b5b6001850283019150848603905094509492505050565b5f82905092915050565b5f82821b905092915050565b5f610adf8383610abe565b82610aea8135610698565b92506004821015610b2a57610b257fffffffff0000000000000000000000000000000000000000000000000000000083600403600802610ac8565b831692505b505092915050565b5f604082019050610b455f8301856106c3565b610b5260208301846106c3565b9392505050565b5f610b648284610a3a565b60208201915081905092915050565b5f81905092915050565b828183375f83830152505050565b5f610b968385610b73565b9350610ba3838584610b7d565b82840190509392505050565b5f610bbb828486610b8b565b91508190509392505050565b7f4e487b71000000000000000000000000000000000000000000000000000000005f52602160045260245ffd5b7f72697363302e52656365697074436c61696d00000000000000000000000000005f82015250565b5f610c28601283610b73565b9150610c3382610bf4565b601282019050919050565b5f610c4882610c1c565b9150819050919050565b5f81519050610c6081610765565b92915050565b5f60208284031215610c7b57610c7a6106eb565b5b5f610c8884828501610c52565b91505092915050565b5f63ffffffff82169050919050565b5f8160e01b9050919050565b5f610cb682610ca0565b9050919050565b610cce610cc982610c91565b610cac565b82525050565b5f61ffff82169050919050565b5f8160f01b9050919050565b5f610cf782610ce1565b9050919050565b610d0f610d0a82610cd4565b610ced565b82525050565b5f610d20828b610a3a565b602082019150610d30828a610a3a565b602082019150610d408289610a3a565b602082019150610d508288610a3a565b602082019150610d608287610a3a565b602082019150610d708286610cbd565b600482019150610d808285610cbd565b600482019150610d908284610cfe565b6002820191508190509998505050505050505050565b5f610db0826107ba565b610dba8185610b73565b9350610dca8185602086016107d4565b80840191505092915050565b5f610de18284610da6565b915081905092915050565b7f72697363302e4f757470757400000000000000000000000000000000000000005f82015250565b5f610e20600c83610b73565b9150610e2b82610dec565b600c82019050919050565b5f610e4082610e14565b9150819050919050565b5f610e558287610a3a565b602082019150610e658286610a3a565b602082019150610e758285610a3a565b602082019150610e858284610cfe565b6002820191508190509594505050505056fea2646970667358221220e19dc3de5e4633acb4a40fb09c3e46e46a48f1d27e0d8103f66d85a5d1618aaa64736f6c634300081e0033","linkReferences":{}},"methodIdentifiers":{"IMAGE_ID_REPOSITORY()":"f4cbae94","PROOF_MODE()":"9a44ea84","VERIFIER()":"08c84e70","imageIdRepository()":"3fd66f22","verify(((bytes4,bytes32[8],uint8),bytes32,uint256,(address,bytes4,uint256,uint256,bytes32)),bytes32,address,bytes4)":"c4fa74e5"},"id":63}